{
	"contracts/Solidity101.sol": {
		"BooleanLogic": {
			"abi": [
				{
					"inputs": [],
					"name": "getAllBooleans",
					"outputs": [
						{
							"internalType": "bool",
							"name": "",
							"type": "bool"
						},
						{
							"internalType": "bool",
							"name": "",
							"type": "bool"
						},
						{
							"internalType": "bool",
							"name": "",
							"type": "bool"
						},
						{
							"internalType": "bool",
							"name": "",
							"type": "bool"
						},
						{
							"internalType": "bool",
							"name": "",
							"type": "bool"
						},
						{
							"internalType": "bool",
							"name": "",
							"type": "bool"
						},
						{
							"internalType": "bool",
							"name": "",
							"type": "bool"
						},
						{
							"internalType": "bool",
							"name": "",
							"type": "bool"
						},
						{
							"internalType": "bool",
							"name": "",
							"type": "bool"
						},
						{
							"internalType": "bool",
							"name": "",
							"type": "bool"
						}
					],
					"stateMutability": "view",
					"type": "function"
				}
			],
			"devdoc": {
				"kind": "dev",
				"methods": {},
				"version": 1
			},
			"evm": {
				"assembly": "    /* \"contracts/Solidity101.sol\":1205:1846  contract BooleanLogic {... */\n  mstore(0x40, 0x80)\n    /* \"contracts/Solidity101.sol\":1242:1246  true */\n  0x01\n    /* \"contracts/Solidity101.sol\":1233:1246  bool a = true */\n  0x00\n  dup1\n  0x0100\n  exp\n  dup2\n  sload\n  dup2\n  0xff\n  mul\n  not\n  and\n  swap1\n  dup4\n  iszero\n  iszero\n  mul\n  or\n  swap1\n  sstore\n  pop\n    /* \"contracts/Solidity101.sol\":1261:1266  false */\n  0x00\n    /* \"contracts/Solidity101.sol\":1252:1266  bool b = false */\n  dup1\n  exp(0x0100, 0x01)\n  dup2\n  sload\n  dup2\n  0xff\n  mul\n  not\n  and\n  swap1\n  dup4\n  iszero\n  iszero\n  mul\n  or\n  swap1\n  sstore\n  pop\n    /* \"contracts/Solidity101.sol\":1299:1300  a */\n  0x00\n  dup1\n  sload\n  swap1\n  0x0100\n  exp\n  swap1\n  div\n  0xff\n  and\n    /* \"contracts/Solidity101.sol\":1298:1300  !a */\n  iszero\n    /* \"contracts/Solidity101.sol\":1289:1300  bool c = !a */\n  0x00\n  exp(0x0100, 0x02)\n  dup2\n  sload\n  dup2\n  0xff\n  mul\n  not\n  and\n  swap1\n  dup4\n  iszero\n  iszero\n  mul\n  or\n  swap1\n  sstore\n  pop\n    /* \"contracts/Solidity101.sol\":1316:1317  c */\n  0x00\n  0x02\n  swap1\n  sload\n  swap1\n  0x0100\n  exp\n  swap1\n  div\n  0xff\n  and\n    /* \"contracts/Solidity101.sol\":1315:1317  !c */\n  iszero\n    /* \"contracts/Solidity101.sol\":1306:1317  bool d = !c */\n  0x00\n  exp(0x0100, 0x03)\n  dup2\n  sload\n  dup2\n  0xff\n  mul\n  not\n  and\n  swap1\n  dup4\n  iszero\n  iszero\n  mul\n  or\n  swap1\n  sstore\n  pop\n    /* \"contracts/Solidity101.sol\":1344:1345  d */\n  0x00\n  0x03\n  swap1\n  sload\n  swap1\n  0x0100\n  exp\n  swap1\n  div\n  0xff\n  and\n    /* \"contracts/Solidity101.sol\":1344:1350  d && a */\n  dup1\n  iszero\n  tag_1\n  jumpi\n  pop\n    /* \"contracts/Solidity101.sol\":1349:1350  a */\n  0x00\n  dup1\n  sload\n  swap1\n  0x0100\n  exp\n  swap1\n  div\n  0xff\n  and\n    /* \"contracts/Solidity101.sol\":1344:1350  d && a */\ntag_1:\n    /* \"contracts/Solidity101.sol\":1335:1350  bool e = d && a */\n  0x00\n  exp(0x0100, 0x04)\n  dup2\n  sload\n  dup2\n  0xff\n  mul\n  not\n  and\n  swap1\n  dup4\n  iszero\n  iszero\n  mul\n  or\n  swap1\n  sstore\n  pop\n    /* \"contracts/Solidity101.sol\":1365:1366  e */\n  0x00\n  0x04\n  swap1\n  sload\n  swap1\n  0x0100\n  exp\n  swap1\n  div\n  0xff\n  and\n    /* \"contracts/Solidity101.sol\":1365:1371  e && b */\n  dup1\n  iszero\n  tag_2\n  jumpi\n  pop\n    /* \"contracts/Solidity101.sol\":1370:1371  b */\n  0x00\n  0x01\n  swap1\n  sload\n  swap1\n  0x0100\n  exp\n  swap1\n  div\n  0xff\n  and\n    /* \"contracts/Solidity101.sol\":1365:1371  e && b */\ntag_2:\n    /* \"contracts/Solidity101.sol\":1356:1371  bool f = e && b */\n  0x00\n  exp(0x0100, 0x05)\n  dup2\n  sload\n  dup2\n  0xff\n  mul\n  not\n  and\n  swap1\n  dup4\n  iszero\n  iszero\n  mul\n  or\n  swap1\n  sstore\n  pop\n    /* \"contracts/Solidity101.sol\":1386:1387  e */\n  0x00\n  0x04\n  swap1\n  sload\n  swap1\n  0x0100\n  exp\n  swap1\n  div\n  0xff\n  and\n    /* \"contracts/Solidity101.sol\":1386:1395  e && true */\n  dup1\n  iszero\n  tag_3\n  jumpi\n  pop\n    /* \"contracts/Solidity101.sol\":1391:1395  true */\n  0x01\n    /* \"contracts/Solidity101.sol\":1386:1395  e && true */\ntag_3:\n    /* \"contracts/Solidity101.sol\":1377:1395  bool g = e && true */\n  0x00\n  exp(0x0100, 0x06)\n  dup2\n  sload\n  dup2\n  0xff\n  mul\n  not\n  and\n  swap1\n  dup4\n  iszero\n  iszero\n  mul\n  or\n  swap1\n  sstore\n  pop\n    /* \"contracts/Solidity101.sol\":1421:1425  true */\n  0x01\n    /* \"contracts/Solidity101.sol\":1421:1434  true || false */\n  dup1\n  tag_4\n  jumpi\n  pop\n    /* \"contracts/Solidity101.sol\":1429:1434  false */\n  0x00\n    /* \"contracts/Solidity101.sol\":1421:1434  true || false */\ntag_4:\n    /* \"contracts/Solidity101.sol\":1412:1434  bool h = true || false */\n  0x00\n  exp(0x0100, 0x07)\n  dup2\n  sload\n  dup2\n  0xff\n  mul\n  not\n  and\n  swap1\n  dup4\n  iszero\n  iszero\n  mul\n  or\n  swap1\n  sstore\n  pop\n    /* \"contracts/Solidity101.sol\":1471:1475  true */\n  0x01\n    /* \"contracts/Solidity101.sol\":1466:1475  a == true */\n  iszero\n  iszero\n    /* \"contracts/Solidity101.sol\":1466:1467  a */\n  0x00\n  dup1\n  sload\n  swap1\n  0x0100\n  exp\n  swap1\n  div\n  0xff\n  and\n    /* \"contracts/Solidity101.sol\":1466:1475  a == true */\n  iszero\n  iszero\n  eq\n    /* \"contracts/Solidity101.sol\":1457:1475  bool i = a == true */\n  0x00\n  exp(0x0100, 0x08)\n  dup2\n  sload\n  dup2\n  0xff\n  mul\n  not\n  and\n  swap1\n  dup4\n  iszero\n  iszero\n  mul\n  or\n  swap1\n  sstore\n  pop\n    /* \"contracts/Solidity101.sol\":1514:1518  true */\n  0x01\n    /* \"contracts/Solidity101.sol\":1509:1518  a != true */\n  iszero\n  iszero\n    /* \"contracts/Solidity101.sol\":1509:1510  a */\n  0x00\n  dup1\n  sload\n  swap1\n  0x0100\n  exp\n  swap1\n  div\n  0xff\n  and\n    /* \"contracts/Solidity101.sol\":1509:1518  a != true */\n  iszero\n  iszero\n  eq\n  iszero\n    /* \"contracts/Solidity101.sol\":1500:1518  bool k = a != true */\n  0x00\n  exp(0x0100, 0x09)\n  dup2\n  sload\n  dup2\n  0xff\n  mul\n  not\n  and\n  swap1\n  dup4\n  iszero\n  iszero\n  mul\n  or\n  swap1\n  sstore\n  pop\n    /* \"contracts/Solidity101.sol\":1205:1846  contract BooleanLogic {... */\n  callvalue\n  dup1\n  iszero\n  tag_5\n  jumpi\n  0x00\n  dup1\n  revert\ntag_5:\n  pop\n  dataSize(sub_0)\n  dup1\n  dataOffset(sub_0)\n  0x00\n  codecopy\n  0x00\n  return\nstop\n\nsub_0: assembly {\n        /* \"contracts/Solidity101.sol\":1205:1846  contract BooleanLogic {... */\n      mstore(0x40, 0x80)\n      callvalue\n      dup1\n      iszero\n      tag_1\n      jumpi\n      0x00\n      dup1\n      revert\n    tag_1:\n      pop\n      jumpi(tag_2, lt(calldatasize, 0x04))\n      shr(0xe0, calldataload(0x00))\n      dup1\n      0xcaa15b71\n      eq\n      tag_3\n      jumpi\n    tag_2:\n      0x00\n      dup1\n      revert\n        /* \"contracts/Solidity101.sol\":1525:1844  function getAllBooleans()... */\n    tag_3:\n      tag_4\n      tag_5\n      jump\t// in\n    tag_4:\n      mload(0x40)\n      tag_6\n      swap11\n      swap10\n      swap9\n      swap8\n      swap7\n      swap6\n      swap5\n      swap4\n      swap3\n      swap2\n      swap1\n      tag_7\n      jump\t// in\n    tag_6:\n      mload(0x40)\n      dup1\n      swap2\n      sub\n      swap1\n      return\n    tag_5:\n        /* \"contracts/Solidity101.sol\":1609:1613  bool */\n      0x00\n        /* \"contracts/Solidity101.sol\":1627:1631  bool */\n      dup1\n        /* \"contracts/Solidity101.sol\":1645:1649  bool */\n      0x00\n        /* \"contracts/Solidity101.sol\":1663:1667  bool */\n      dup1\n        /* \"contracts/Solidity101.sol\":1681:1685  bool */\n      0x00\n        /* \"contracts/Solidity101.sol\":1699:1703  bool */\n      dup1\n        /* \"contracts/Solidity101.sol\":1717:1721  bool */\n      0x00\n        /* \"contracts/Solidity101.sol\":1735:1739  bool */\n      dup1\n        /* \"contracts/Solidity101.sol\":1753:1757  bool */\n      0x00\n        /* \"contracts/Solidity101.sol\":1771:1775  bool */\n      dup1\n        /* \"contracts/Solidity101.sol\":1808:1809  a */\n      0x00\n      dup1\n      sload\n      swap1\n      0x0100\n      exp\n      swap1\n      div\n      0xff\n      and\n        /* \"contracts/Solidity101.sol\":1811:1812  b */\n      0x00\n      0x01\n      swap1\n      sload\n      swap1\n      0x0100\n      exp\n      swap1\n      div\n      0xff\n      and\n        /* \"contracts/Solidity101.sol\":1814:1815  c */\n      0x00\n      0x02\n      swap1\n      sload\n      swap1\n      0x0100\n      exp\n      swap1\n      div\n      0xff\n      and\n        /* \"contracts/Solidity101.sol\":1817:1818  d */\n      0x00\n      0x03\n      swap1\n      sload\n      swap1\n      0x0100\n      exp\n      swap1\n      div\n      0xff\n      and\n        /* \"contracts/Solidity101.sol\":1820:1821  e */\n      0x00\n      0x04\n      swap1\n      sload\n      swap1\n      0x0100\n      exp\n      swap1\n      div\n      0xff\n      and\n        /* \"contracts/Solidity101.sol\":1823:1824  f */\n      0x00\n      0x05\n      swap1\n      sload\n      swap1\n      0x0100\n      exp\n      swap1\n      div\n      0xff\n      and\n        /* \"contracts/Solidity101.sol\":1826:1827  g */\n      0x00\n      0x06\n      swap1\n      sload\n      swap1\n      0x0100\n      exp\n      swap1\n      div\n      0xff\n      and\n        /* \"contracts/Solidity101.sol\":1829:1830  h */\n      0x00\n      0x07\n      swap1\n      sload\n      swap1\n      0x0100\n      exp\n      swap1\n      div\n      0xff\n      and\n        /* \"contracts/Solidity101.sol\":1832:1833  i */\n      0x00\n      0x08\n      swap1\n      sload\n      swap1\n      0x0100\n      exp\n      swap1\n      div\n      0xff\n      and\n        /* \"contracts/Solidity101.sol\":1835:1836  k */\n      0x00\n      0x09\n      swap1\n      sload\n      swap1\n      0x0100\n      exp\n      swap1\n      div\n      0xff\n      and\n        /* \"contracts/Solidity101.sol\":1800:1837  return (a, b, c, d, e, f, g, h, i, k) */\n      swap10\n      pop\n      swap10\n      pop\n      swap10\n      pop\n      swap10\n      pop\n      swap10\n      pop\n      swap10\n      pop\n      swap10\n      pop\n      swap10\n      pop\n      swap10\n      pop\n      swap10\n      pop\n        /* \"contracts/Solidity101.sol\":1525:1844  function getAllBooleans()... */\n      swap1\n      swap2\n      swap3\n      swap4\n      swap5\n      swap6\n      swap7\n      swap8\n      swap9\n      swap10\n      jump\t// out\n        /* \"#utility.yul\":7:97   */\n    tag_9:\n        /* \"#utility.yul\":41:48   */\n      0x00\n        /* \"#utility.yul\":84:89   */\n      dup2\n        /* \"#utility.yul\":77:90   */\n      iszero\n        /* \"#utility.yul\":70:91   */\n      iszero\n        /* \"#utility.yul\":59:91   */\n      swap1\n      pop\n        /* \"#utility.yul\":7:97   */\n      swap2\n      swap1\n      pop\n      jump\t// out\n        /* \"#utility.yul\":103:212   */\n    tag_10:\n        /* \"#utility.yul\":184:205   */\n      tag_14\n        /* \"#utility.yul\":199:204   */\n      dup2\n        /* \"#utility.yul\":184:205   */\n      tag_9\n      jump\t// in\n    tag_14:\n        /* \"#utility.yul\":179:182   */\n      dup3\n        /* \"#utility.yul\":172:206   */\n      mstore\n        /* \"#utility.yul\":103:212   */\n      pop\n      pop\n      jump\t// out\n        /* \"#utility.yul\":218:1317   */\n    tag_7:\n        /* \"#utility.yul\":503:507   */\n      0x00\n        /* \"#utility.yul\":541:544   */\n      0x0140\n        /* \"#utility.yul\":530:539   */\n      dup3\n        /* \"#utility.yul\":526:545   */\n      add\n        /* \"#utility.yul\":518:545   */\n      swap1\n      pop\n        /* \"#utility.yul\":555:620   */\n      tag_16\n        /* \"#utility.yul\":617:618   */\n      0x00\n        /* \"#utility.yul\":606:615   */\n      dup4\n        /* \"#utility.yul\":602:619   */\n      add\n        /* \"#utility.yul\":593:599   */\n      dup14\n        /* \"#utility.yul\":555:620   */\n      tag_10\n      jump\t// in\n    tag_16:\n        /* \"#utility.yul\":630:696   */\n      tag_17\n        /* \"#utility.yul\":692:694   */\n      0x20\n        /* \"#utility.yul\":681:690   */\n      dup4\n        /* \"#utility.yul\":677:695   */\n      add\n        /* \"#utility.yul\":668:674   */\n      dup13\n        /* \"#utility.yul\":630:696   */\n      tag_10\n      jump\t// in\n    tag_17:\n        /* \"#utility.yul\":706:772   */\n      tag_18\n        /* \"#utility.yul\":768:770   */\n      0x40\n        /* \"#utility.yul\":757:766   */\n      dup4\n        /* \"#utility.yul\":753:771   */\n      add\n        /* \"#utility.yul\":744:750   */\n      dup12\n        /* \"#utility.yul\":706:772   */\n      tag_10\n      jump\t// in\n    tag_18:\n        /* \"#utility.yul\":782:848   */\n      tag_19\n        /* \"#utility.yul\":844:846   */\n      0x60\n        /* \"#utility.yul\":833:842   */\n      dup4\n        /* \"#utility.yul\":829:847   */\n      add\n        /* \"#utility.yul\":820:826   */\n      dup11\n        /* \"#utility.yul\":782:848   */\n      tag_10\n      jump\t// in\n    tag_19:\n        /* \"#utility.yul\":858:925   */\n      tag_20\n        /* \"#utility.yul\":920:923   */\n      0x80\n        /* \"#utility.yul\":909:918   */\n      dup4\n        /* \"#utility.yul\":905:924   */\n      add\n        /* \"#utility.yul\":896:902   */\n      dup10\n        /* \"#utility.yul\":858:925   */\n      tag_10\n      jump\t// in\n    tag_20:\n        /* \"#utility.yul\":935:1002   */\n      tag_21\n        /* \"#utility.yul\":997:1000   */\n      0xa0\n        /* \"#utility.yul\":986:995   */\n      dup4\n        /* \"#utility.yul\":982:1001   */\n      add\n        /* \"#utility.yul\":973:979   */\n      dup9\n        /* \"#utility.yul\":935:1002   */\n      tag_10\n      jump\t// in\n    tag_21:\n        /* \"#utility.yul\":1012:1079   */\n      tag_22\n        /* \"#utility.yul\":1074:1077   */\n      0xc0\n        /* \"#utility.yul\":1063:1072   */\n      dup4\n        /* \"#utility.yul\":1059:1078   */\n      add\n        /* \"#utility.yul\":1050:1056   */\n      dup8\n        /* \"#utility.yul\":1012:1079   */\n      tag_10\n      jump\t// in\n    tag_22:\n        /* \"#utility.yul\":1089:1156   */\n      tag_23\n        /* \"#utility.yul\":1151:1154   */\n      0xe0\n        /* \"#utility.yul\":1140:1149   */\n      dup4\n        /* \"#utility.yul\":1136:1155   */\n      add\n        /* \"#utility.yul\":1127:1133   */\n      dup7\n        /* \"#utility.yul\":1089:1156   */\n      tag_10\n      jump\t// in\n    tag_23:\n        /* \"#utility.yul\":1166:1233   */\n      tag_24\n        /* \"#utility.yul\":1228:1231   */\n      0x0100\n        /* \"#utility.yul\":1217:1226   */\n      dup4\n        /* \"#utility.yul\":1213:1232   */\n      add\n        /* \"#utility.yul\":1204:1210   */\n      dup6\n        /* \"#utility.yul\":1166:1233   */\n      tag_10\n      jump\t// in\n    tag_24:\n        /* \"#utility.yul\":1243:1310   */\n      tag_25\n        /* \"#utility.yul\":1305:1308   */\n      0x0120\n        /* \"#utility.yul\":1294:1303   */\n      dup4\n        /* \"#utility.yul\":1290:1309   */\n      add\n        /* \"#utility.yul\":1281:1287   */\n      dup5\n        /* \"#utility.yul\":1243:1310   */\n      tag_10\n      jump\t// in\n    tag_25:\n        /* \"#utility.yul\":218:1317   */\n      swap12\n      swap11\n      pop\n      pop\n      pop\n      pop\n      pop\n      pop\n      pop\n      pop\n      pop\n      pop\n      pop\n      jump\t// out\n\n    auxdata: 0xa2646970667358221220a39ad55f898ab21699484a9ae152008ff827d6690ff1a4cf87c789b731e29b4264736f6c634300081a0033\n}\n",
				"bytecode": {
					"linkReferences": {},
					"object": "608060405260015f806101000a81548160ff0219169083151502179055505f8060016101000a81548160ff0219169083151502179055505f8054906101000a900460ff16155f60026101000a81548160ff0219169083151502179055505f60029054906101000a900460ff16155f60036101000a81548160ff0219169083151502179055505f60039054906101000a900460ff1680156100a857505f8054906101000a900460ff165b5f60046101000a81548160ff0219169083151502179055505f60049054906101000a900460ff1680156100e657505f60019054906101000a900460ff165b5f60056101000a81548160ff0219169083151502179055505f60049054906101000a900460ff168015610117575060015b5f60066101000a81548160ff02191690831515021790555060018061013957505f5b5f60076101000a81548160ff021916908315150217905550600115155f8054906101000a900460ff161515145f60086101000a81548160ff021916908315150217905550600115155f8054906101000a900460ff16151514155f60096101000a81548160ff0219169083151502179055503480156101b5575f80fd5b506101fc806101c35f395ff3fe608060405234801561000f575f80fd5b5060043610610029575f3560e01c8063caa15b711461002d575b5f80fd5b610035610054565b60405161004b9a9998979695949392919061012c565b60405180910390f35b5f805f805f805f805f805f8054906101000a900460ff165f60019054906101000a900460ff165f60029054906101000a900460ff165f60039054906101000a900460ff165f60049054906101000a900460ff165f60059054906101000a900460ff165f60069054906101000a900460ff165f60079054906101000a900460ff165f60089054906101000a900460ff165f60099054906101000a900460ff16995099509950995099509950995099509950995090919293949596979899565b5f8115159050919050565b61012681610112565b82525050565b5f610140820190506101405f83018d61011d565b61014d602083018c61011d565b61015a604083018b61011d565b610167606083018a61011d565b610174608083018961011d565b61018160a083018861011d565b61018e60c083018761011d565b61019b60e083018661011d565b6101a961010083018561011d565b6101b761012083018461011d565b9b9a505050505050505050505056fea2646970667358221220a39ad55f898ab21699484a9ae152008ff827d6690ff1a4cf87c789b731e29b4264736f6c634300081a0033",
					"opcodes": "PUSH1 0x80 PUSH1 0x40 MSTORE PUSH1 0x1 PUSH0 DUP1 PUSH2 0x100 EXP DUP2 SLOAD DUP2 PUSH1 0xFF MUL NOT AND SWAP1 DUP4 ISZERO ISZERO MUL OR SWAP1 SSTORE POP PUSH0 DUP1 PUSH1 0x1 PUSH2 0x100 EXP DUP2 SLOAD DUP2 PUSH1 0xFF MUL NOT AND SWAP1 DUP4 ISZERO ISZERO MUL OR SWAP1 SSTORE POP PUSH0 DUP1 SLOAD SWAP1 PUSH2 0x100 EXP SWAP1 DIV PUSH1 0xFF AND ISZERO PUSH0 PUSH1 0x2 PUSH2 0x100 EXP DUP2 SLOAD DUP2 PUSH1 0xFF MUL NOT AND SWAP1 DUP4 ISZERO ISZERO MUL OR SWAP1 SSTORE POP PUSH0 PUSH1 0x2 SWAP1 SLOAD SWAP1 PUSH2 0x100 EXP SWAP1 DIV PUSH1 0xFF AND ISZERO PUSH0 PUSH1 0x3 PUSH2 0x100 EXP DUP2 SLOAD DUP2 PUSH1 0xFF MUL NOT AND SWAP1 DUP4 ISZERO ISZERO MUL OR SWAP1 SSTORE POP PUSH0 PUSH1 0x3 SWAP1 SLOAD SWAP1 PUSH2 0x100 EXP SWAP1 DIV PUSH1 0xFF AND DUP1 ISZERO PUSH2 0xA8 JUMPI POP PUSH0 DUP1 SLOAD SWAP1 PUSH2 0x100 EXP SWAP1 DIV PUSH1 0xFF AND JUMPDEST PUSH0 PUSH1 0x4 PUSH2 0x100 EXP DUP2 SLOAD DUP2 PUSH1 0xFF MUL NOT AND SWAP1 DUP4 ISZERO ISZERO MUL OR SWAP1 SSTORE POP PUSH0 PUSH1 0x4 SWAP1 SLOAD SWAP1 PUSH2 0x100 EXP SWAP1 DIV PUSH1 0xFF AND DUP1 ISZERO PUSH2 0xE6 JUMPI POP PUSH0 PUSH1 0x1 SWAP1 SLOAD SWAP1 PUSH2 0x100 EXP SWAP1 DIV PUSH1 0xFF AND JUMPDEST PUSH0 PUSH1 0x5 PUSH2 0x100 EXP DUP2 SLOAD DUP2 PUSH1 0xFF MUL NOT AND SWAP1 DUP4 ISZERO ISZERO MUL OR SWAP1 SSTORE POP PUSH0 PUSH1 0x4 SWAP1 SLOAD SWAP1 PUSH2 0x100 EXP SWAP1 DIV PUSH1 0xFF AND DUP1 ISZERO PUSH2 0x117 JUMPI POP PUSH1 0x1 JUMPDEST PUSH0 PUSH1 0x6 PUSH2 0x100 EXP DUP2 SLOAD DUP2 PUSH1 0xFF MUL NOT AND SWAP1 DUP4 ISZERO ISZERO MUL OR SWAP1 SSTORE POP PUSH1 0x1 DUP1 PUSH2 0x139 JUMPI POP PUSH0 JUMPDEST PUSH0 PUSH1 0x7 PUSH2 0x100 EXP DUP2 SLOAD DUP2 PUSH1 0xFF MUL NOT AND SWAP1 DUP4 ISZERO ISZERO MUL OR SWAP1 SSTORE POP PUSH1 0x1 ISZERO ISZERO PUSH0 DUP1 SLOAD SWAP1 PUSH2 0x100 EXP SWAP1 DIV PUSH1 0xFF AND ISZERO ISZERO EQ PUSH0 PUSH1 0x8 PUSH2 0x100 EXP DUP2 SLOAD DUP2 PUSH1 0xFF MUL NOT AND SWAP1 DUP4 ISZERO ISZERO MUL OR SWAP1 SSTORE POP PUSH1 0x1 ISZERO ISZERO PUSH0 DUP1 SLOAD SWAP1 PUSH2 0x100 EXP SWAP1 DIV PUSH1 0xFF AND ISZERO ISZERO EQ ISZERO PUSH0 PUSH1 0x9 PUSH2 0x100 EXP DUP2 SLOAD DUP2 PUSH1 0xFF MUL NOT AND SWAP1 DUP4 ISZERO ISZERO MUL OR SWAP1 SSTORE POP CALLVALUE DUP1 ISZERO PUSH2 0x1B5 JUMPI PUSH0 DUP1 REVERT JUMPDEST POP PUSH2 0x1FC DUP1 PUSH2 0x1C3 PUSH0 CODECOPY PUSH0 RETURN INVALID PUSH1 0x80 PUSH1 0x40 MSTORE CALLVALUE DUP1 ISZERO PUSH2 0xF JUMPI PUSH0 DUP1 REVERT JUMPDEST POP PUSH1 0x4 CALLDATASIZE LT PUSH2 0x29 JUMPI PUSH0 CALLDATALOAD PUSH1 0xE0 SHR DUP1 PUSH4 0xCAA15B71 EQ PUSH2 0x2D JUMPI JUMPDEST PUSH0 DUP1 REVERT JUMPDEST PUSH2 0x35 PUSH2 0x54 JUMP JUMPDEST PUSH1 0x40 MLOAD PUSH2 0x4B SWAP11 SWAP10 SWAP9 SWAP8 SWAP7 SWAP6 SWAP5 SWAP4 SWAP3 SWAP2 SWAP1 PUSH2 0x12C JUMP JUMPDEST PUSH1 0x40 MLOAD DUP1 SWAP2 SUB SWAP1 RETURN JUMPDEST PUSH0 DUP1 PUSH0 DUP1 PUSH0 DUP1 PUSH0 DUP1 PUSH0 DUP1 PUSH0 DUP1 SLOAD SWAP1 PUSH2 0x100 EXP SWAP1 DIV PUSH1 0xFF AND PUSH0 PUSH1 0x1 SWAP1 SLOAD SWAP1 PUSH2 0x100 EXP SWAP1 DIV PUSH1 0xFF AND PUSH0 PUSH1 0x2 SWAP1 SLOAD SWAP1 PUSH2 0x100 EXP SWAP1 DIV PUSH1 0xFF AND PUSH0 PUSH1 0x3 SWAP1 SLOAD SWAP1 PUSH2 0x100 EXP SWAP1 DIV PUSH1 0xFF AND PUSH0 PUSH1 0x4 SWAP1 SLOAD SWAP1 PUSH2 0x100 EXP SWAP1 DIV PUSH1 0xFF AND PUSH0 PUSH1 0x5 SWAP1 SLOAD SWAP1 PUSH2 0x100 EXP SWAP1 DIV PUSH1 0xFF AND PUSH0 PUSH1 0x6 SWAP1 SLOAD SWAP1 PUSH2 0x100 EXP SWAP1 DIV PUSH1 0xFF AND PUSH0 PUSH1 0x7 SWAP1 SLOAD SWAP1 PUSH2 0x100 EXP SWAP1 DIV PUSH1 0xFF AND PUSH0 PUSH1 0x8 SWAP1 SLOAD SWAP1 PUSH2 0x100 EXP SWAP1 DIV PUSH1 0xFF AND PUSH0 PUSH1 0x9 SWAP1 SLOAD SWAP1 PUSH2 0x100 EXP SWAP1 DIV PUSH1 0xFF AND SWAP10 POP SWAP10 POP SWAP10 POP SWAP10 POP SWAP10 POP SWAP10 POP SWAP10 POP SWAP10 POP SWAP10 POP SWAP10 POP SWAP1 SWAP2 SWAP3 SWAP4 SWAP5 SWAP6 SWAP7 SWAP8 SWAP9 SWAP10 JUMP JUMPDEST PUSH0 DUP2 ISZERO ISZERO SWAP1 POP SWAP2 SWAP1 POP JUMP JUMPDEST PUSH2 0x126 DUP2 PUSH2 0x112 JUMP JUMPDEST DUP3 MSTORE POP POP JUMP JUMPDEST PUSH0 PUSH2 0x140 DUP3 ADD SWAP1 POP PUSH2 0x140 PUSH0 DUP4 ADD DUP14 PUSH2 0x11D JUMP JUMPDEST PUSH2 0x14D PUSH1 0x20 DUP4 ADD DUP13 PUSH2 0x11D JUMP JUMPDEST PUSH2 0x15A PUSH1 0x40 DUP4 ADD DUP12 PUSH2 0x11D JUMP JUMPDEST PUSH2 0x167 PUSH1 0x60 DUP4 ADD DUP11 PUSH2 0x11D JUMP JUMPDEST PUSH2 0x174 PUSH1 0x80 DUP4 ADD DUP10 PUSH2 0x11D JUMP JUMPDEST PUSH2 0x181 PUSH1 0xA0 DUP4 ADD DUP9 PUSH2 0x11D JUMP JUMPDEST PUSH2 0x18E PUSH1 0xC0 DUP4 ADD DUP8 PUSH2 0x11D JUMP JUMPDEST PUSH2 0x19B PUSH1 0xE0 DUP4 ADD DUP7 PUSH2 0x11D JUMP JUMPDEST PUSH2 0x1A9 PUSH2 0x100 DUP4 ADD DUP6 PUSH2 0x11D JUMP JUMPDEST PUSH2 0x1B7 PUSH2 0x120 DUP4 ADD DUP5 PUSH2 0x11D JUMP JUMPDEST SWAP12 SWAP11 POP POP POP POP POP POP POP POP POP POP POP JUMP INVALID LOG2 PUSH5 0x6970667358 0x22 SLT KECCAK256 LOG3 SWAP11 0xD5 PUSH0 DUP10 DUP11 0xB2 AND SWAP10 BASEFEE BLOBBASEFEE SWAP11 0xE1 MSTORE STOP DUP16 0xF8 0x27 0xD6 PUSH10 0xFF1A4CF87C789B731E2 SWAP12 TIMESTAMP PUSH5 0x736F6C6343 STOP ADDMOD BYTE STOP CALLER "
				},
				"gasEstimates": {
					"creation": {
						"codeDepositCost": "101600",
						"executionCost": "262845",
						"totalCost": "364445"
					},
					"external": {
						"getAllBooleans()": "infinite"
					}
				},
				"methodIdentifiers": {
					"getAllBooleans()": "caa15b71"
				}
			},
			"storageLayout": {
				"storage": [
					{
						"astId": 90,
						"contract": "contracts/Solidity101.sol:BooleanLogic",
						"label": "a",
						"offset": 0,
						"slot": "0",
						"type": "t_bool"
					},
					{
						"astId": 93,
						"contract": "contracts/Solidity101.sol:BooleanLogic",
						"label": "b",
						"offset": 1,
						"slot": "0",
						"type": "t_bool"
					},
					{
						"astId": 97,
						"contract": "contracts/Solidity101.sol:BooleanLogic",
						"label": "c",
						"offset": 2,
						"slot": "0",
						"type": "t_bool"
					},
					{
						"astId": 101,
						"contract": "contracts/Solidity101.sol:BooleanLogic",
						"label": "d",
						"offset": 3,
						"slot": "0",
						"type": "t_bool"
					},
					{
						"astId": 106,
						"contract": "contracts/Solidity101.sol:BooleanLogic",
						"label": "e",
						"offset": 4,
						"slot": "0",
						"type": "t_bool"
					},
					{
						"astId": 111,
						"contract": "contracts/Solidity101.sol:BooleanLogic",
						"label": "f",
						"offset": 5,
						"slot": "0",
						"type": "t_bool"
					},
					{
						"astId": 116,
						"contract": "contracts/Solidity101.sol:BooleanLogic",
						"label": "g",
						"offset": 6,
						"slot": "0",
						"type": "t_bool"
					},
					{
						"astId": 121,
						"contract": "contracts/Solidity101.sol:BooleanLogic",
						"label": "h",
						"offset": 7,
						"slot": "0",
						"type": "t_bool"
					},
					{
						"astId": 126,
						"contract": "contracts/Solidity101.sol:BooleanLogic",
						"label": "i",
						"offset": 8,
						"slot": "0",
						"type": "t_bool"
					},
					{
						"astId": 131,
						"contract": "contracts/Solidity101.sol:BooleanLogic",
						"label": "k",
						"offset": 9,
						"slot": "0",
						"type": "t_bool"
					}
				],
				"types": {
					"t_bool": {
						"encoding": "inplace",
						"label": "bool",
						"numberOfBytes": "1"
					}
				}
			},
			"userdoc": {
				"kind": "user",
				"methods": {},
				"version": 1
			}
		}
	}
}