{
	"contracts/Solidity101.sol": {
		"AddressPayable": {
			"abi": [
				{
					"inputs": [],
					"name": "getAddress",
					"outputs": [
						{
							"internalType": "address",
							"name": "",
							"type": "address"
						},
						{
							"internalType": "address",
							"name": "",
							"type": "address"
						},
						{
							"internalType": "address",
							"name": "",
							"type": "address"
						},
						{
							"internalType": "address",
							"name": "",
							"type": "address"
						}
					],
					"stateMutability": "view",
					"type": "function"
				},
				{
					"inputs": [],
					"name": "getBalance",
					"outputs": [
						{
							"internalType": "uint256",
							"name": "",
							"type": "uint256"
						},
						{
							"internalType": "uint256",
							"name": "",
							"type": "uint256"
						},
						{
							"internalType": "uint256",
							"name": "",
							"type": "uint256"
						},
						{
							"internalType": "uint256",
							"name": "",
							"type": "uint256"
						}
					],
					"stateMutability": "view",
					"type": "function"
				}
			],
			"devdoc": {
				"kind": "dev",
				"methods": {},
				"version": 1
			},
			"evm": {
				"assembly": "    /* \"contracts/Solidity101.sol\":2415:3143  contract AddressPayable {... */\n  mstore(0x40, 0x80)\n    /* \"contracts/Solidity101.sol\":2483:2488  0x123 */\n  0x0123\n    /* \"contracts/Solidity101.sol\":2445:2490  address payable add = payable(address(0x123)) */\n  0x00\n  dup1\n  0x0100\n  exp\n  dup2\n  sload\n  dup2\n  0xffffffffffffffffffffffffffffffffffffffff\n  mul\n  not\n  and\n  swap1\n  dup4\n  0xffffffffffffffffffffffffffffffffffffffff\n  and\n  mul\n  or\n  swap1\n  sstore\n  pop\n    /* \"contracts/Solidity101.sol\":2528:2570  0x5B38Da6a701c568545dCfcB03FcB875f56beddC4 */\n  0x5b38da6a701c568545dcfcb03fcb875f56beddc4\n    /* \"contracts/Solidity101.sol\":2497:2571  address payable add1 = payable(0x5B38Da6a701c568545dCfcB03FcB875f56beddC4) */\n  0x01\n  exp(0x0100, 0x00)\n  dup2\n  sload\n  dup2\n  0xffffffffffffffffffffffffffffffffffffffff\n  mul\n  not\n  and\n  swap1\n  dup4\n  0xffffffffffffffffffffffffffffffffffffffff\n  and\n  mul\n  or\n  swap1\n  sstore\n  pop\n    /* \"contracts/Solidity101.sol\":2589:2593  add1 */\n  0x01\n  0x00\n  swap1\n  sload\n  swap1\n  0x0100\n  exp\n  swap1\n  div\n  0xffffffffffffffffffffffffffffffffffffffff\n  and\n    /* \"contracts/Solidity101.sol\":2577:2593  address b = add1 */\n  0x02\n  exp(0x0100, 0x00)\n  dup2\n  sload\n  dup2\n  0xffffffffffffffffffffffffffffffffffffffff\n  mul\n  not\n  and\n  swap1\n  dup4\n  0xffffffffffffffffffffffffffffffffffffffff\n  and\n  mul\n  or\n  swap1\n  sstore\n  pop\n    /* \"contracts/Solidity101.sol\":2682:2683  b */\n  0x02\n  0x00\n  swap1\n  sload\n  swap1\n  0x0100\n  exp\n  swap1\n  div\n  0xffffffffffffffffffffffffffffffffffffffff\n  and\n    /* \"contracts/Solidity101.sol\":2654:2684  address payable d = payable(b) */\n  0x03\n  exp(0x0100, 0x00)\n  dup2\n  sload\n  dup2\n  0xffffffffffffffffffffffffffffffffffffffff\n  mul\n  not\n  and\n  swap1\n  dup4\n  0xffffffffffffffffffffffffffffffffffffffff\n  and\n  mul\n  or\n  swap1\n  sstore\n  pop\n    /* \"contracts/Solidity101.sol\":2415:3143  contract AddressPayable {... */\n  callvalue\n  dup1\n  iszero\n  tag_1\n  jumpi\n  0x00\n  dup1\n  revert\ntag_1:\n  pop\n  dataSize(sub_0)\n  dup1\n  dataOffset(sub_0)\n  0x00\n  codecopy\n  0x00\n  return\nstop\n\nsub_0: assembly {\n        /* \"contracts/Solidity101.sol\":2415:3143  contract AddressPayable {... */\n      mstore(0x40, 0x80)\n      callvalue\n      dup1\n      iszero\n      tag_1\n      jumpi\n      0x00\n      dup1\n      revert\n    tag_1:\n      pop\n      jumpi(tag_2, lt(calldatasize, 0x04))\n      shr(0xe0, calldataload(0x00))\n      dup1\n      0x12065fe0\n      eq\n      tag_3\n      jumpi\n      dup1\n      0x38cc4831\n      eq\n      tag_4\n      jumpi\n    tag_2:\n      0x00\n      dup1\n      revert\n        /* \"contracts/Solidity101.sol\":2691:2929  function getBalance()... */\n    tag_3:\n      tag_5\n      tag_6\n      jump\t// in\n    tag_5:\n      mload(0x40)\n      tag_7\n      swap5\n      swap4\n      swap3\n      swap2\n      swap1\n      tag_8\n      jump\t// in\n    tag_7:\n      mload(0x40)\n      dup1\n      swap2\n      sub\n      swap1\n      return\n        /* \"contracts/Solidity101.sol\":2935:3141  function getAddress()... */\n    tag_4:\n      tag_9\n      tag_10\n      jump\t// in\n    tag_9:\n      mload(0x40)\n      tag_11\n      swap5\n      swap4\n      swap3\n      swap2\n      swap1\n      tag_12\n      jump\t// in\n    tag_11:\n      mload(0x40)\n      dup1\n      swap2\n      sub\n      swap1\n      return\n        /* \"contracts/Solidity101.sol\":2691:2929  function getBalance()... */\n    tag_6:\n        /* \"contracts/Solidity101.sol\":2771:2778  uint256 */\n      0x00\n        /* \"contracts/Solidity101.sol\":2792:2799  uint256 */\n      dup1\n        /* \"contracts/Solidity101.sol\":2813:2820  uint256 */\n      0x00\n        /* \"contracts/Solidity101.sol\":2834:2841  uint256 */\n      dup1\n        /* \"contracts/Solidity101.sol\":2874:2877  add */\n      0x00\n      dup1\n      sload\n      swap1\n      0x0100\n      exp\n      swap1\n      div\n      0xffffffffffffffffffffffffffffffffffffffff\n      and\n        /* \"contracts/Solidity101.sol\":2874:2885  add.balance */\n      0xffffffffffffffffffffffffffffffffffffffff\n      and\n      balance\n        /* \"contracts/Solidity101.sol\":2887:2891  add1 */\n      0x01\n      0x00\n      swap1\n      sload\n      swap1\n      0x0100\n      exp\n      swap1\n      div\n      0xffffffffffffffffffffffffffffffffffffffff\n      and\n        /* \"contracts/Solidity101.sol\":2887:2899  add1.balance */\n      0xffffffffffffffffffffffffffffffffffffffff\n      and\n      balance\n        /* \"contracts/Solidity101.sol\":2901:2902  b */\n      0x02\n      0x00\n      swap1\n      sload\n      swap1\n      0x0100\n      exp\n      swap1\n      div\n      0xffffffffffffffffffffffffffffffffffffffff\n      and\n        /* \"contracts/Solidity101.sol\":2901:2910  b.balance */\n      0xffffffffffffffffffffffffffffffffffffffff\n      and\n      balance\n        /* \"contracts/Solidity101.sol\":2912:2913  d */\n      0x03\n      0x00\n      swap1\n      sload\n      swap1\n      0x0100\n      exp\n      swap1\n      div\n      0xffffffffffffffffffffffffffffffffffffffff\n      and\n        /* \"contracts/Solidity101.sol\":2912:2921  d.balance */\n      0xffffffffffffffffffffffffffffffffffffffff\n      and\n      balance\n        /* \"contracts/Solidity101.sol\":2866:2922  return (add.balance, add1.balance, b.balance, d.balance) */\n      swap4\n      pop\n      swap4\n      pop\n      swap4\n      pop\n      swap4\n      pop\n        /* \"contracts/Solidity101.sol\":2691:2929  function getBalance()... */\n      swap1\n      swap2\n      swap3\n      swap4\n      jump\t// out\n        /* \"contracts/Solidity101.sol\":2935:3141  function getAddress()... */\n    tag_10:\n        /* \"contracts/Solidity101.sol\":3015:3022  address */\n      0x00\n        /* \"contracts/Solidity101.sol\":3036:3043  address */\n      dup1\n        /* \"contracts/Solidity101.sol\":3057:3064  address */\n      0x00\n        /* \"contracts/Solidity101.sol\":3078:3085  address */\n      dup1\n        /* \"contracts/Solidity101.sol\":3118:3121  add */\n      0x00\n      dup1\n      sload\n      swap1\n      0x0100\n      exp\n      swap1\n      div\n      0xffffffffffffffffffffffffffffffffffffffff\n      and\n        /* \"contracts/Solidity101.sol\":3123:3127  add1 */\n      0x01\n      0x00\n      swap1\n      sload\n      swap1\n      0x0100\n      exp\n      swap1\n      div\n      0xffffffffffffffffffffffffffffffffffffffff\n      and\n        /* \"contracts/Solidity101.sol\":3129:3130  b */\n      0x02\n      0x00\n      swap1\n      sload\n      swap1\n      0x0100\n      exp\n      swap1\n      div\n      0xffffffffffffffffffffffffffffffffffffffff\n      and\n        /* \"contracts/Solidity101.sol\":3132:3133  d */\n      0x03\n      0x00\n      swap1\n      sload\n      swap1\n      0x0100\n      exp\n      swap1\n      div\n      0xffffffffffffffffffffffffffffffffffffffff\n      and\n        /* \"contracts/Solidity101.sol\":3110:3134  return (add, add1, b, d) */\n      swap4\n      pop\n      swap4\n      pop\n      swap4\n      pop\n      swap4\n      pop\n        /* \"contracts/Solidity101.sol\":2935:3141  function getAddress()... */\n      swap1\n      swap2\n      swap3\n      swap4\n      jump\t// out\n        /* \"#utility.yul\":7:84   */\n    tag_15:\n        /* \"#utility.yul\":44:51   */\n      0x00\n        /* \"#utility.yul\":73:78   */\n      dup2\n        /* \"#utility.yul\":62:78   */\n      swap1\n      pop\n        /* \"#utility.yul\":7:84   */\n      swap2\n      swap1\n      pop\n      jump\t// out\n        /* \"#utility.yul\":90:208   */\n    tag_16:\n        /* \"#utility.yul\":177:201   */\n      tag_23\n        /* \"#utility.yul\":195:200   */\n      dup2\n        /* \"#utility.yul\":177:201   */\n      tag_15\n      jump\t// in\n    tag_23:\n        /* \"#utility.yul\":172:175   */\n      dup3\n        /* \"#utility.yul\":165:202   */\n      mstore\n        /* \"#utility.yul\":90:208   */\n      pop\n      pop\n      jump\t// out\n        /* \"#utility.yul\":214:767   */\n    tag_8:\n        /* \"#utility.yul\":391:395   */\n      0x00\n        /* \"#utility.yul\":429:432   */\n      0x80\n        /* \"#utility.yul\":418:427   */\n      dup3\n        /* \"#utility.yul\":414:433   */\n      add\n        /* \"#utility.yul\":406:433   */\n      swap1\n      pop\n        /* \"#utility.yul\":443:514   */\n      tag_25\n        /* \"#utility.yul\":511:512   */\n      0x00\n        /* \"#utility.yul\":500:509   */\n      dup4\n        /* \"#utility.yul\":496:513   */\n      add\n        /* \"#utility.yul\":487:493   */\n      dup8\n        /* \"#utility.yul\":443:514   */\n      tag_16\n      jump\t// in\n    tag_25:\n        /* \"#utility.yul\":524:596   */\n      tag_26\n        /* \"#utility.yul\":592:594   */\n      0x20\n        /* \"#utility.yul\":581:590   */\n      dup4\n        /* \"#utility.yul\":577:595   */\n      add\n        /* \"#utility.yul\":568:574   */\n      dup7\n        /* \"#utility.yul\":524:596   */\n      tag_16\n      jump\t// in\n    tag_26:\n        /* \"#utility.yul\":606:678   */\n      tag_27\n        /* \"#utility.yul\":674:676   */\n      0x40\n        /* \"#utility.yul\":663:672   */\n      dup4\n        /* \"#utility.yul\":659:677   */\n      add\n        /* \"#utility.yul\":650:656   */\n      dup6\n        /* \"#utility.yul\":606:678   */\n      tag_16\n      jump\t// in\n    tag_27:\n        /* \"#utility.yul\":688:760   */\n      tag_28\n        /* \"#utility.yul\":756:758   */\n      0x60\n        /* \"#utility.yul\":745:754   */\n      dup4\n        /* \"#utility.yul\":741:759   */\n      add\n        /* \"#utility.yul\":732:738   */\n      dup5\n        /* \"#utility.yul\":688:760   */\n      tag_16\n      jump\t// in\n    tag_28:\n        /* \"#utility.yul\":214:767   */\n      swap6\n      swap5\n      pop\n      pop\n      pop\n      pop\n      pop\n      jump\t// out\n        /* \"#utility.yul\":773:899   */\n    tag_17:\n        /* \"#utility.yul\":810:817   */\n      0x00\n        /* \"#utility.yul\":850:892   */\n      0xffffffffffffffffffffffffffffffffffffffff\n        /* \"#utility.yul\":843:848   */\n      dup3\n        /* \"#utility.yul\":839:893   */\n      and\n        /* \"#utility.yul\":828:893   */\n      swap1\n      pop\n        /* \"#utility.yul\":773:899   */\n      swap2\n      swap1\n      pop\n      jump\t// out\n        /* \"#utility.yul\":905:1001   */\n    tag_18:\n        /* \"#utility.yul\":942:949   */\n      0x00\n        /* \"#utility.yul\":971:995   */\n      tag_31\n        /* \"#utility.yul\":989:994   */\n      dup3\n        /* \"#utility.yul\":971:995   */\n      tag_17\n      jump\t// in\n    tag_31:\n        /* \"#utility.yul\":960:995   */\n      swap1\n      pop\n        /* \"#utility.yul\":905:1001   */\n      swap2\n      swap1\n      pop\n      jump\t// out\n        /* \"#utility.yul\":1007:1125   */\n    tag_19:\n        /* \"#utility.yul\":1094:1118   */\n      tag_33\n        /* \"#utility.yul\":1112:1117   */\n      dup2\n        /* \"#utility.yul\":1094:1118   */\n      tag_18\n      jump\t// in\n    tag_33:\n        /* \"#utility.yul\":1089:1092   */\n      dup3\n        /* \"#utility.yul\":1082:1119   */\n      mstore\n        /* \"#utility.yul\":1007:1125   */\n      pop\n      pop\n      jump\t// out\n        /* \"#utility.yul\":1131:1684   */\n    tag_12:\n        /* \"#utility.yul\":1308:1312   */\n      0x00\n        /* \"#utility.yul\":1346:1349   */\n      0x80\n        /* \"#utility.yul\":1335:1344   */\n      dup3\n        /* \"#utility.yul\":1331:1350   */\n      add\n        /* \"#utility.yul\":1323:1350   */\n      swap1\n      pop\n        /* \"#utility.yul\":1360:1431   */\n      tag_35\n        /* \"#utility.yul\":1428:1429   */\n      0x00\n        /* \"#utility.yul\":1417:1426   */\n      dup4\n        /* \"#utility.yul\":1413:1430   */\n      add\n        /* \"#utility.yul\":1404:1410   */\n      dup8\n        /* \"#utility.yul\":1360:1431   */\n      tag_19\n      jump\t// in\n    tag_35:\n        /* \"#utility.yul\":1441:1513   */\n      tag_36\n        /* \"#utility.yul\":1509:1511   */\n      0x20\n        /* \"#utility.yul\":1498:1507   */\n      dup4\n        /* \"#utility.yul\":1494:1512   */\n      add\n        /* \"#utility.yul\":1485:1491   */\n      dup7\n        /* \"#utility.yul\":1441:1513   */\n      tag_19\n      jump\t// in\n    tag_36:\n        /* \"#utility.yul\":1523:1595   */\n      tag_37\n        /* \"#utility.yul\":1591:1593   */\n      0x40\n        /* \"#utility.yul\":1580:1589   */\n      dup4\n        /* \"#utility.yul\":1576:1594   */\n      add\n        /* \"#utility.yul\":1567:1573   */\n      dup6\n        /* \"#utility.yul\":1523:1595   */\n      tag_19\n      jump\t// in\n    tag_37:\n        /* \"#utility.yul\":1605:1677   */\n      tag_38\n        /* \"#utility.yul\":1673:1675   */\n      0x60\n        /* \"#utility.yul\":1662:1671   */\n      dup4\n        /* \"#utility.yul\":1658:1676   */\n      add\n        /* \"#utility.yul\":1649:1655   */\n      dup5\n        /* \"#utility.yul\":1605:1677   */\n      tag_19\n      jump\t// in\n    tag_38:\n        /* \"#utility.yul\":1131:1684   */\n      swap6\n      swap5\n      pop\n      pop\n      pop\n      pop\n      pop\n      jump\t// out\n\n    auxdata: 0xa2646970667358221220ae81fad00286c584e70b76b6a327a9c5d3b6a5507ff4be4b57f235f20992505964736f6c634300081a0033\n}\n",
				"bytecode": {
					"linkReferences": {},
					"object": "60806040526101235f806101000a81548173ffffffffffffffffffffffffffffffffffffffff021916908373ffffffffffffffffffffffffffffffffffffffff160217905550735b38da6a701c568545dcfcb03fcb875f56beddc460015f6101000a81548173ffffffffffffffffffffffffffffffffffffffff021916908373ffffffffffffffffffffffffffffffffffffffff16021790555060015f9054906101000a900473ffffffffffffffffffffffffffffffffffffffff1660025f6101000a81548173ffffffffffffffffffffffffffffffffffffffff021916908373ffffffffffffffffffffffffffffffffffffffff16021790555060025f9054906101000a900473ffffffffffffffffffffffffffffffffffffffff1660035f6101000a81548173ffffffffffffffffffffffffffffffffffffffff021916908373ffffffffffffffffffffffffffffffffffffffff160217905550348015610166575f80fd5b50610319806101745f395ff3fe608060405234801561000f575f80fd5b5060043610610034575f3560e01c806312065fe01461003857806338cc483114610059575b5f80fd5b61004061007a565b604051610050949392919061021e565b60405180910390f35b61006161016e565b60405161007194939291906102a0565b60405180910390f35b5f805f805f8054906101000a900473ffffffffffffffffffffffffffffffffffffffff1673ffffffffffffffffffffffffffffffffffffffff163160015f9054906101000a900473ffffffffffffffffffffffffffffffffffffffff1673ffffffffffffffffffffffffffffffffffffffff163160025f9054906101000a900473ffffffffffffffffffffffffffffffffffffffff1673ffffffffffffffffffffffffffffffffffffffff163160035f9054906101000a900473ffffffffffffffffffffffffffffffffffffffff1673ffffffffffffffffffffffffffffffffffffffff1631935093509350935090919293565b5f805f805f8054906101000a900473ffffffffffffffffffffffffffffffffffffffff1660015f9054906101000a900473ffffffffffffffffffffffffffffffffffffffff1660025f9054906101000a900473ffffffffffffffffffffffffffffffffffffffff1660035f9054906101000a900473ffffffffffffffffffffffffffffffffffffffff16935093509350935090919293565b5f819050919050565b61021881610206565b82525050565b5f6080820190506102315f83018761020f565b61023e602083018661020f565b61024b604083018561020f565b610258606083018461020f565b95945050505050565b5f73ffffffffffffffffffffffffffffffffffffffff82169050919050565b5f61028a82610261565b9050919050565b61029a81610280565b82525050565b5f6080820190506102b35f830187610291565b6102c06020830186610291565b6102cd6040830185610291565b6102da6060830184610291565b9594505050505056fea2646970667358221220ae81fad00286c584e70b76b6a327a9c5d3b6a5507ff4be4b57f235f20992505964736f6c634300081a0033",
					"opcodes": "PUSH1 0x80 PUSH1 0x40 MSTORE PUSH2 0x123 PUSH0 DUP1 PUSH2 0x100 EXP DUP2 SLOAD DUP2 PUSH20 0xFFFFFFFFFFFFFFFFFFFFFFFFFFFFFFFFFFFFFFFF MUL NOT AND SWAP1 DUP4 PUSH20 0xFFFFFFFFFFFFFFFFFFFFFFFFFFFFFFFFFFFFFFFF AND MUL OR SWAP1 SSTORE POP PUSH20 0x5B38DA6A701C568545DCFCB03FCB875F56BEDDC4 PUSH1 0x1 PUSH0 PUSH2 0x100 EXP DUP2 SLOAD DUP2 PUSH20 0xFFFFFFFFFFFFFFFFFFFFFFFFFFFFFFFFFFFFFFFF MUL NOT AND SWAP1 DUP4 PUSH20 0xFFFFFFFFFFFFFFFFFFFFFFFFFFFFFFFFFFFFFFFF AND MUL OR SWAP1 SSTORE POP PUSH1 0x1 PUSH0 SWAP1 SLOAD SWAP1 PUSH2 0x100 EXP SWAP1 DIV PUSH20 0xFFFFFFFFFFFFFFFFFFFFFFFFFFFFFFFFFFFFFFFF AND PUSH1 0x2 PUSH0 PUSH2 0x100 EXP DUP2 SLOAD DUP2 PUSH20 0xFFFFFFFFFFFFFFFFFFFFFFFFFFFFFFFFFFFFFFFF MUL NOT AND SWAP1 DUP4 PUSH20 0xFFFFFFFFFFFFFFFFFFFFFFFFFFFFFFFFFFFFFFFF AND MUL OR SWAP1 SSTORE POP PUSH1 0x2 PUSH0 SWAP1 SLOAD SWAP1 PUSH2 0x100 EXP SWAP1 DIV PUSH20 0xFFFFFFFFFFFFFFFFFFFFFFFFFFFFFFFFFFFFFFFF AND PUSH1 0x3 PUSH0 PUSH2 0x100 EXP DUP2 SLOAD DUP2 PUSH20 0xFFFFFFFFFFFFFFFFFFFFFFFFFFFFFFFFFFFFFFFF MUL NOT AND SWAP1 DUP4 PUSH20 0xFFFFFFFFFFFFFFFFFFFFFFFFFFFFFFFFFFFFFFFF AND MUL OR SWAP1 SSTORE POP CALLVALUE DUP1 ISZERO PUSH2 0x166 JUMPI PUSH0 DUP1 REVERT JUMPDEST POP PUSH2 0x319 DUP1 PUSH2 0x174 PUSH0 CODECOPY PUSH0 RETURN INVALID PUSH1 0x80 PUSH1 0x40 MSTORE CALLVALUE DUP1 ISZERO PUSH2 0xF JUMPI PUSH0 DUP1 REVERT JUMPDEST POP PUSH1 0x4 CALLDATASIZE LT PUSH2 0x34 JUMPI PUSH0 CALLDATALOAD PUSH1 0xE0 SHR DUP1 PUSH4 0x12065FE0 EQ PUSH2 0x38 JUMPI DUP1 PUSH4 0x38CC4831 EQ PUSH2 0x59 JUMPI JUMPDEST PUSH0 DUP1 REVERT JUMPDEST PUSH2 0x40 PUSH2 0x7A JUMP JUMPDEST PUSH1 0x40 MLOAD PUSH2 0x50 SWAP5 SWAP4 SWAP3 SWAP2 SWAP1 PUSH2 0x21E JUMP JUMPDEST PUSH1 0x40 MLOAD DUP1 SWAP2 SUB SWAP1 RETURN JUMPDEST PUSH2 0x61 PUSH2 0x16E JUMP JUMPDEST PUSH1 0x40 MLOAD PUSH2 0x71 SWAP5 SWAP4 SWAP3 SWAP2 SWAP1 PUSH2 0x2A0 JUMP JUMPDEST PUSH1 0x40 MLOAD DUP1 SWAP2 SUB SWAP1 RETURN JUMPDEST PUSH0 DUP1 PUSH0 DUP1 PUSH0 DUP1 SLOAD SWAP1 PUSH2 0x100 EXP SWAP1 DIV PUSH20 0xFFFFFFFFFFFFFFFFFFFFFFFFFFFFFFFFFFFFFFFF AND PUSH20 0xFFFFFFFFFFFFFFFFFFFFFFFFFFFFFFFFFFFFFFFF AND BALANCE PUSH1 0x1 PUSH0 SWAP1 SLOAD SWAP1 PUSH2 0x100 EXP SWAP1 DIV PUSH20 0xFFFFFFFFFFFFFFFFFFFFFFFFFFFFFFFFFFFFFFFF AND PUSH20 0xFFFFFFFFFFFFFFFFFFFFFFFFFFFFFFFFFFFFFFFF AND BALANCE PUSH1 0x2 PUSH0 SWAP1 SLOAD SWAP1 PUSH2 0x100 EXP SWAP1 DIV PUSH20 0xFFFFFFFFFFFFFFFFFFFFFFFFFFFFFFFFFFFFFFFF AND PUSH20 0xFFFFFFFFFFFFFFFFFFFFFFFFFFFFFFFFFFFFFFFF AND BALANCE PUSH1 0x3 PUSH0 SWAP1 SLOAD SWAP1 PUSH2 0x100 EXP SWAP1 DIV PUSH20 0xFFFFFFFFFFFFFFFFFFFFFFFFFFFFFFFFFFFFFFFF AND PUSH20 0xFFFFFFFFFFFFFFFFFFFFFFFFFFFFFFFFFFFFFFFF AND BALANCE SWAP4 POP SWAP4 POP SWAP4 POP SWAP4 POP SWAP1 SWAP2 SWAP3 SWAP4 JUMP JUMPDEST PUSH0 DUP1 PUSH0 DUP1 PUSH0 DUP1 SLOAD SWAP1 PUSH2 0x100 EXP SWAP1 DIV PUSH20 0xFFFFFFFFFFFFFFFFFFFFFFFFFFFFFFFFFFFFFFFF AND PUSH1 0x1 PUSH0 SWAP1 SLOAD SWAP1 PUSH2 0x100 EXP SWAP1 DIV PUSH20 0xFFFFFFFFFFFFFFFFFFFFFFFFFFFFFFFFFFFFFFFF AND PUSH1 0x2 PUSH0 SWAP1 SLOAD SWAP1 PUSH2 0x100 EXP SWAP1 DIV PUSH20 0xFFFFFFFFFFFFFFFFFFFFFFFFFFFFFFFFFFFFFFFF AND PUSH1 0x3 PUSH0 SWAP1 SLOAD SWAP1 PUSH2 0x100 EXP SWAP1 DIV PUSH20 0xFFFFFFFFFFFFFFFFFFFFFFFFFFFFFFFFFFFFFFFF AND SWAP4 POP SWAP4 POP SWAP4 POP SWAP4 POP SWAP1 SWAP2 SWAP3 SWAP4 JUMP JUMPDEST PUSH0 DUP2 SWAP1 POP SWAP2 SWAP1 POP JUMP JUMPDEST PUSH2 0x218 DUP2 PUSH2 0x206 JUMP JUMPDEST DUP3 MSTORE POP POP JUMP JUMPDEST PUSH0 PUSH1 0x80 DUP3 ADD SWAP1 POP PUSH2 0x231 PUSH0 DUP4 ADD DUP8 PUSH2 0x20F JUMP JUMPDEST PUSH2 0x23E PUSH1 0x20 DUP4 ADD DUP7 PUSH2 0x20F JUMP JUMPDEST PUSH2 0x24B PUSH1 0x40 DUP4 ADD DUP6 PUSH2 0x20F JUMP JUMPDEST PUSH2 0x258 PUSH1 0x60 DUP4 ADD DUP5 PUSH2 0x20F JUMP JUMPDEST SWAP6 SWAP5 POP POP POP POP POP JUMP JUMPDEST PUSH0 PUSH20 0xFFFFFFFFFFFFFFFFFFFFFFFFFFFFFFFFFFFFFFFF DUP3 AND SWAP1 POP SWAP2 SWAP1 POP JUMP JUMPDEST PUSH0 PUSH2 0x28A DUP3 PUSH2 0x261 JUMP JUMPDEST SWAP1 POP SWAP2 SWAP1 POP JUMP JUMPDEST PUSH2 0x29A DUP2 PUSH2 0x280 JUMP JUMPDEST DUP3 MSTORE POP POP JUMP JUMPDEST PUSH0 PUSH1 0x80 DUP3 ADD SWAP1 POP PUSH2 0x2B3 PUSH0 DUP4 ADD DUP8 PUSH2 0x291 JUMP JUMPDEST PUSH2 0x2C0 PUSH1 0x20 DUP4 ADD DUP7 PUSH2 0x291 JUMP JUMPDEST PUSH2 0x2CD PUSH1 0x40 DUP4 ADD DUP6 PUSH2 0x291 JUMP JUMPDEST PUSH2 0x2DA PUSH1 0x60 DUP4 ADD DUP5 PUSH2 0x291 JUMP JUMPDEST SWAP6 SWAP5 POP POP POP POP POP JUMP INVALID LOG2 PUSH5 0x6970667358 0x22 SLT KECCAK256 0xAE DUP2 STATICCALL 0xD0 MUL DUP7 0xC5 DUP5 0xE7 SIGNEXTEND PUSH23 0xB6A327A9C5D3B6A5507FF4BE4B57F235F2099250596473 PUSH16 0x6C634300081A00330000000000000000 "
				},
				"gasEstimates": {
					"creation": {
						"codeDepositCost": "158600",
						"executionCost": "101534",
						"totalCost": "260134"
					},
					"external": {
						"getAddress()": "infinite",
						"getBalance()": "infinite"
					}
				},
				"methodIdentifiers": {
					"getAddress()": "38cc4831",
					"getBalance()": "12065fe0"
				}
			},
			"storageLayout": {
				"storage": [
					{
						"astId": 214,
						"contract": "contracts/Solidity101.sol:AddressPayable",
						"label": "add",
						"offset": 0,
						"slot": "0",
						"type": "t_address_payable"
					},
					{
						"astId": 220,
						"contract": "contracts/Solidity101.sol:AddressPayable",
						"label": "add1",
						"offset": 0,
						"slot": "1",
						"type": "t_address_payable"
					},
					{
						"astId": 223,
						"contract": "contracts/Solidity101.sol:AddressPayable",
						"label": "b",
						"offset": 0,
						"slot": "2",
						"type": "t_address"
					},
					{
						"astId": 229,
						"contract": "contracts/Solidity101.sol:AddressPayable",
						"label": "d",
						"offset": 0,
						"slot": "3",
						"type": "t_address_payable"
					}
				],
				"types": {
					"t_address": {
						"encoding": "inplace",
						"label": "address",
						"numberOfBytes": "20"
					},
					"t_address_payable": {
						"encoding": "inplace",
						"label": "address payable",
						"numberOfBytes": "20"
					}
				}
			},
			"userdoc": {
				"kind": "user",
				"methods": {},
				"version": 1
			}
		}
	}
}