{
	"contracts/Solidity101.sol": {
		"IntegerWithBitSize": {
			"abi": [
				{
					"inputs": [],
					"name": "getAll",
					"outputs": [
						{
							"internalType": "uint8",
							"name": "",
							"type": "uint8"
						},
						{
							"internalType": "int256",
							"name": "",
							"type": "int256"
						},
						{
							"internalType": "int128",
							"name": "",
							"type": "int128"
						}
					],
					"stateMutability": "view",
					"type": "function"
				}
			],
			"devdoc": {
				"kind": "dev",
				"methods": {},
				"version": 1
			},
			"evm": {
				"assembly": "    /* \"contracts/Solidity101.sol\":884:1203  contract IntegerWithBitSize {... */\n  mstore(0x40, 0x80)\n  callvalue\n  dup1\n  iszero\n  tag_1\n  jumpi\n  0x00\n  dup1\n  revert\ntag_1:\n  pop\n  dataSize(sub_0)\n  dup1\n  dataOffset(sub_0)\n  0x00\n  codecopy\n  0x00\n  return\nstop\n\nsub_0: assembly {\n        /* \"contracts/Solidity101.sol\":884:1203  contract IntegerWithBitSize {... */\n      mstore(0x40, 0x80)\n      callvalue\n      dup1\n      iszero\n      tag_1\n      jumpi\n      0x00\n      dup1\n      revert\n    tag_1:\n      pop\n      jumpi(tag_2, lt(calldatasize, 0x04))\n      shr(0xe0, calldataload(0x00))\n      dup1\n      0x53ed5143\n      eq\n      tag_3\n      jumpi\n    tag_2:\n      0x00\n      dup1\n      revert\n        /* \"contracts/Solidity101.sol\":1032:1201  function getAll()... */\n    tag_3:\n      tag_4\n      tag_5\n      jump\t// in\n    tag_4:\n      mload(0x40)\n      tag_6\n      swap4\n      swap3\n      swap2\n      swap1\n      tag_7\n      jump\t// in\n    tag_6:\n      mload(0x40)\n      dup1\n      swap2\n      sub\n      swap1\n      return\n    tag_5:\n        /* \"contracts/Solidity101.sol\":1108:1113  uint8 */\n      0x00\n        /* \"contracts/Solidity101.sol\":1127:1133  int256 */\n      dup1\n        /* \"contracts/Solidity101.sol\":1147:1153  int128 */\n      0x00\n        /* \"contracts/Solidity101.sol\":1186:1187  a */\n      dup1\n      0x00\n      swap1\n      sload\n      swap1\n      0x0100\n      exp\n      swap1\n      div\n      0xff\n      and\n        /* \"contracts/Solidity101.sol\":1189:1190  b */\n      sload(0x01)\n        /* \"contracts/Solidity101.sol\":1192:1193  c */\n      0x02\n      0x00\n      swap1\n      sload\n      swap1\n      0x0100\n      exp\n      swap1\n      div\n      0x0f\n      signextend\n        /* \"contracts/Solidity101.sol\":1178:1194  return (a, b, c) */\n      swap3\n      pop\n      swap3\n      pop\n      swap3\n      pop\n        /* \"contracts/Solidity101.sol\":1032:1201  function getAll()... */\n      swap1\n      swap2\n      swap3\n      jump\t// out\n        /* \"#utility.yul\":7:93   */\n    tag_9:\n        /* \"#utility.yul\":42:49   */\n      0x00\n        /* \"#utility.yul\":82:86   */\n      0xff\n        /* \"#utility.yul\":75:80   */\n      dup3\n        /* \"#utility.yul\":71:87   */\n      and\n        /* \"#utility.yul\":60:87   */\n      swap1\n      pop\n        /* \"#utility.yul\":7:93   */\n      swap2\n      swap1\n      pop\n      jump\t// out\n        /* \"#utility.yul\":99:211   */\n    tag_10:\n        /* \"#utility.yul\":182:204   */\n      tag_18\n        /* \"#utility.yul\":198:203   */\n      dup2\n        /* \"#utility.yul\":182:204   */\n      tag_9\n      jump\t// in\n    tag_18:\n        /* \"#utility.yul\":177:180   */\n      dup3\n        /* \"#utility.yul\":170:205   */\n      mstore\n        /* \"#utility.yul\":99:211   */\n      pop\n      pop\n      jump\t// out\n        /* \"#utility.yul\":217:293   */\n    tag_11:\n        /* \"#utility.yul\":253:260   */\n      0x00\n        /* \"#utility.yul\":282:287   */\n      dup2\n        /* \"#utility.yul\":271:287   */\n      swap1\n      pop\n        /* \"#utility.yul\":217:293   */\n      swap2\n      swap1\n      pop\n      jump\t// out\n        /* \"#utility.yul\":299:414   */\n    tag_12:\n        /* \"#utility.yul\":384:407   */\n      tag_21\n        /* \"#utility.yul\":401:406   */\n      dup2\n        /* \"#utility.yul\":384:407   */\n      tag_11\n      jump\t// in\n    tag_21:\n        /* \"#utility.yul\":379:382   */\n      dup3\n        /* \"#utility.yul\":372:408   */\n      mstore\n        /* \"#utility.yul\":299:414   */\n      pop\n      pop\n      jump\t// out\n        /* \"#utility.yul\":420:512   */\n    tag_13:\n        /* \"#utility.yul\":456:463   */\n      0x00\n        /* \"#utility.yul\":500:505   */\n      dup2\n        /* \"#utility.yul\":496:498   */\n      0x0f\n        /* \"#utility.yul\":485:506   */\n      signextend\n        /* \"#utility.yul\":474:506   */\n      swap1\n      pop\n        /* \"#utility.yul\":420:512   */\n      swap2\n      swap1\n      pop\n      jump\t// out\n        /* \"#utility.yul\":518:633   */\n    tag_14:\n        /* \"#utility.yul\":603:626   */\n      tag_24\n        /* \"#utility.yul\":620:625   */\n      dup2\n        /* \"#utility.yul\":603:626   */\n      tag_13\n      jump\t// in\n    tag_24:\n        /* \"#utility.yul\":598:601   */\n      dup3\n        /* \"#utility.yul\":591:627   */\n      mstore\n        /* \"#utility.yul\":518:633   */\n      pop\n      pop\n      jump\t// out\n        /* \"#utility.yul\":639:1065   */\n    tag_7:\n        /* \"#utility.yul\":780:784   */\n      0x00\n        /* \"#utility.yul\":818:820   */\n      0x60\n        /* \"#utility.yul\":807:816   */\n      dup3\n        /* \"#utility.yul\":803:821   */\n      add\n        /* \"#utility.yul\":795:821   */\n      swap1\n      pop\n        /* \"#utility.yul\":831:898   */\n      tag_26\n        /* \"#utility.yul\":895:896   */\n      0x00\n        /* \"#utility.yul\":884:893   */\n      dup4\n        /* \"#utility.yul\":880:897   */\n      add\n        /* \"#utility.yul\":871:877   */\n      dup7\n        /* \"#utility.yul\":831:898   */\n      tag_10\n      jump\t// in\n    tag_26:\n        /* \"#utility.yul\":908:978   */\n      tag_27\n        /* \"#utility.yul\":974:976   */\n      0x20\n        /* \"#utility.yul\":963:972   */\n      dup4\n        /* \"#utility.yul\":959:977   */\n      add\n        /* \"#utility.yul\":950:956   */\n      dup6\n        /* \"#utility.yul\":908:978   */\n      tag_12\n      jump\t// in\n    tag_27:\n        /* \"#utility.yul\":988:1058   */\n      tag_28\n        /* \"#utility.yul\":1054:1056   */\n      0x40\n        /* \"#utility.yul\":1043:1052   */\n      dup4\n        /* \"#utility.yul\":1039:1057   */\n      add\n        /* \"#utility.yul\":1030:1036   */\n      dup5\n        /* \"#utility.yul\":988:1058   */\n      tag_14\n      jump\t// in\n    tag_28:\n        /* \"#utility.yul\":639:1065   */\n      swap5\n      swap4\n      pop\n      pop\n      pop\n      pop\n      jump\t// out\n\n    auxdata: 0xa264697066735822122078ed316b80d7b2d99b0b735b638181caeae4b479d728bec0a94842e81f0df9ba64736f6c634300081a0033\n}\n",
				"bytecode": {
					"linkReferences": {},
					"object": "6080604052348015600e575f80fd5b506101218061001c5f395ff3fe6080604052348015600e575f80fd5b50600436106026575f3560e01c806353ed514314602a575b5f80fd5b60306046565b604051603d9392919060bc565b60405180910390f35b5f805f805f9054906101000a900460ff1660015460025f9054906101000a9004600f0b925092509250909192565b5f60ff82169050919050565b6087816074565b82525050565b5f819050919050565b609d81608d565b82525050565b5f81600f0b9050919050565b60b68160a3565b82525050565b5f60608201905060cd5f8301866080565b60d860208301856096565b60e3604083018460af565b94935050505056fea264697066735822122078ed316b80d7b2d99b0b735b638181caeae4b479d728bec0a94842e81f0df9ba64736f6c634300081a0033",
					"opcodes": "PUSH1 0x80 PUSH1 0x40 MSTORE CALLVALUE DUP1 ISZERO PUSH1 0xE JUMPI PUSH0 DUP1 REVERT JUMPDEST POP PUSH2 0x121 DUP1 PUSH2 0x1C PUSH0 CODECOPY PUSH0 RETURN INVALID PUSH1 0x80 PUSH1 0x40 MSTORE CALLVALUE DUP1 ISZERO PUSH1 0xE JUMPI PUSH0 DUP1 REVERT JUMPDEST POP PUSH1 0x4 CALLDATASIZE LT PUSH1 0x26 JUMPI PUSH0 CALLDATALOAD PUSH1 0xE0 SHR DUP1 PUSH4 0x53ED5143 EQ PUSH1 0x2A JUMPI JUMPDEST PUSH0 DUP1 REVERT JUMPDEST PUSH1 0x30 PUSH1 0x46 JUMP JUMPDEST PUSH1 0x40 MLOAD PUSH1 0x3D SWAP4 SWAP3 SWAP2 SWAP1 PUSH1 0xBC JUMP JUMPDEST PUSH1 0x40 MLOAD DUP1 SWAP2 SUB SWAP1 RETURN JUMPDEST PUSH0 DUP1 PUSH0 DUP1 PUSH0 SWAP1 SLOAD SWAP1 PUSH2 0x100 EXP SWAP1 DIV PUSH1 0xFF AND PUSH1 0x1 SLOAD PUSH1 0x2 PUSH0 SWAP1 SLOAD SWAP1 PUSH2 0x100 EXP SWAP1 DIV PUSH1 0xF SIGNEXTEND SWAP3 POP SWAP3 POP SWAP3 POP SWAP1 SWAP2 SWAP3 JUMP JUMPDEST PUSH0 PUSH1 0xFF DUP3 AND SWAP1 POP SWAP2 SWAP1 POP JUMP JUMPDEST PUSH1 0x87 DUP2 PUSH1 0x74 JUMP JUMPDEST DUP3 MSTORE POP POP JUMP JUMPDEST PUSH0 DUP2 SWAP1 POP SWAP2 SWAP1 POP JUMP JUMPDEST PUSH1 0x9D DUP2 PUSH1 0x8D JUMP JUMPDEST DUP3 MSTORE POP POP JUMP JUMPDEST PUSH0 DUP2 PUSH1 0xF SIGNEXTEND SWAP1 POP SWAP2 SWAP1 POP JUMP JUMPDEST PUSH1 0xB6 DUP2 PUSH1 0xA3 JUMP JUMPDEST DUP3 MSTORE POP POP JUMP JUMPDEST PUSH0 PUSH1 0x60 DUP3 ADD SWAP1 POP PUSH1 0xCD PUSH0 DUP4 ADD DUP7 PUSH1 0x80 JUMP JUMPDEST PUSH1 0xD8 PUSH1 0x20 DUP4 ADD DUP6 PUSH1 0x96 JUMP JUMPDEST PUSH1 0xE3 PUSH1 0x40 DUP4 ADD DUP5 PUSH1 0xAF JUMP JUMPDEST SWAP5 SWAP4 POP POP POP POP JUMP INVALID LOG2 PUSH5 0x6970667358 0x22 SLT KECCAK256 PUSH25 0xED316B80D7B2D99B0B735B638181CAEAE4B479D728BEC0A948 TIMESTAMP 0xE8 0x1F 0xD 0xF9 0xBA PUSH5 0x736F6C6343 STOP ADDMOD BYTE STOP CALLER "
				},
				"gasEstimates": {
					"creation": {
						"codeDepositCost": "57800",
						"executionCost": "109",
						"totalCost": "57909"
					},
					"external": {
						"getAll()": "6921"
					}
				},
				"methodIdentifiers": {
					"getAll()": "53ed5143"
				}
			},
			"storageLayout": {
				"storage": [
					{
						"astId": 67,
						"contract": "contracts/Solidity101.sol:IntegerWithBitSize",
						"label": "a",
						"offset": 0,
						"slot": "0",
						"type": "t_uint8"
					},
					{
						"astId": 69,
						"contract": "contracts/Solidity101.sol:IntegerWithBitSize",
						"label": "b",
						"offset": 0,
						"slot": "1",
						"type": "t_int256"
					},
					{
						"astId": 71,
						"contract": "contracts/Solidity101.sol:IntegerWithBitSize",
						"label": "c",
						"offset": 0,
						"slot": "2",
						"type": "t_int128"
					}
				],
				"types": {
					"t_int128": {
						"encoding": "inplace",
						"label": "int128",
						"numberOfBytes": "16"
					},
					"t_int256": {
						"encoding": "inplace",
						"label": "int256",
						"numberOfBytes": "32"
					},
					"t_uint8": {
						"encoding": "inplace",
						"label": "uint8",
						"numberOfBytes": "1"
					}
				}
			},
			"userdoc": {
				"kind": "user",
				"methods": {},
				"version": 1
			}
		}
	}
}