{
	"contracts/Solidity101.sol": {
		"BasicVarAndInt": {
			"abi": [
				{
					"inputs": [],
					"name": "getAll",
					"outputs": [
						{
							"internalType": "int256",
							"name": "",
							"type": "int256"
						},
						{
							"internalType": "int256",
							"name": "",
							"type": "int256"
						}
					],
					"stateMutability": "view",
					"type": "function"
				}
			],
			"devdoc": {
				"kind": "dev",
				"methods": {},
				"version": 1
			},
			"evm": {
				"assembly": "    /* \"contracts/Solidity101.sol\":227:407  contract BasicVarAndInt {... */\n  mstore(0x40, 0x80)\n    /* \"contracts/Solidity101.sol\":297:298  3 */\n  0x03\n    /* \"contracts/Solidity101.sol\":281:298  int256 levels = 3 */\n  0x01\n  sstore\n    /* \"contracts/Solidity101.sol\":227:407  contract BasicVarAndInt {... */\n  callvalue\n  dup1\n  iszero\n  tag_1\n  jumpi\n  0x00\n  dup1\n  revert\ntag_1:\n  pop\n  dataSize(sub_0)\n  dup1\n  dataOffset(sub_0)\n  0x00\n  codecopy\n  0x00\n  return\nstop\n\nsub_0: assembly {\n        /* \"contracts/Solidity101.sol\":227:407  contract BasicVarAndInt {... */\n      mstore(0x40, 0x80)\n      callvalue\n      dup1\n      iszero\n      tag_1\n      jumpi\n      0x00\n      dup1\n      revert\n    tag_1:\n      pop\n      jumpi(tag_2, lt(calldatasize, 0x04))\n      shr(0xe0, calldataload(0x00))\n      dup1\n      0x53ed5143\n      eq\n      tag_3\n      jumpi\n    tag_2:\n      0x00\n      dup1\n      revert\n        /* \"contracts/Solidity101.sol\":305:405  function getAll() public view returns (int256, int256) {... */\n    tag_3:\n      tag_4\n      tag_5\n      jump\t// in\n    tag_4:\n      mload(0x40)\n      tag_6\n      swap3\n      swap2\n      swap1\n      tag_7\n      jump\t// in\n    tag_6:\n      mload(0x40)\n      dup1\n      swap2\n      sub\n      swap1\n      return\n    tag_5:\n        /* \"contracts/Solidity101.sol\":344:350  int256 */\n      0x00\n        /* \"contracts/Solidity101.sol\":352:358  int256 */\n      dup1\n        /* \"contracts/Solidity101.sol\":378:389  basic_price */\n      sload(0x00)\n        /* \"contracts/Solidity101.sol\":391:397  levels */\n      sload(0x01)\n        /* \"contracts/Solidity101.sol\":370:398  return (basic_price, levels) */\n      swap2\n      pop\n      swap2\n      pop\n        /* \"contracts/Solidity101.sol\":305:405  function getAll() public view returns (int256, int256) {... */\n      swap1\n      swap2\n      jump\t// out\n        /* \"#utility.yul\":7:83   */\n    tag_9:\n        /* \"#utility.yul\":43:50   */\n      0x00\n        /* \"#utility.yul\":72:77   */\n      dup2\n        /* \"#utility.yul\":61:77   */\n      swap1\n      pop\n        /* \"#utility.yul\":7:83   */\n      swap2\n      swap1\n      pop\n      jump\t// out\n        /* \"#utility.yul\":89:204   */\n    tag_10:\n        /* \"#utility.yul\":174:197   */\n      tag_14\n        /* \"#utility.yul\":191:196   */\n      dup2\n        /* \"#utility.yul\":174:197   */\n      tag_9\n      jump\t// in\n    tag_14:\n        /* \"#utility.yul\":169:172   */\n      dup3\n        /* \"#utility.yul\":162:198   */\n      mstore\n        /* \"#utility.yul\":89:204   */\n      pop\n      pop\n      jump\t// out\n        /* \"#utility.yul\":210:534   */\n    tag_7:\n        /* \"#utility.yul\":327:331   */\n      0x00\n        /* \"#utility.yul\":365:367   */\n      0x40\n        /* \"#utility.yul\":354:363   */\n      dup3\n        /* \"#utility.yul\":350:368   */\n      add\n        /* \"#utility.yul\":342:368   */\n      swap1\n      pop\n        /* \"#utility.yul\":378:447   */\n      tag_16\n        /* \"#utility.yul\":444:445   */\n      0x00\n        /* \"#utility.yul\":433:442   */\n      dup4\n        /* \"#utility.yul\":429:446   */\n      add\n        /* \"#utility.yul\":420:426   */\n      dup6\n        /* \"#utility.yul\":378:447   */\n      tag_10\n      jump\t// in\n    tag_16:\n        /* \"#utility.yul\":457:527   */\n      tag_17\n        /* \"#utility.yul\":523:525   */\n      0x20\n        /* \"#utility.yul\":512:521   */\n      dup4\n        /* \"#utility.yul\":508:526   */\n      add\n        /* \"#utility.yul\":499:505   */\n      dup5\n        /* \"#utility.yul\":457:527   */\n      tag_10\n      jump\t// in\n    tag_17:\n        /* \"#utility.yul\":210:534   */\n      swap4\n      swap3\n      pop\n      pop\n      pop\n      jump\t// out\n\n    auxdata: 0xa26469706673582212203c06291248ca2f20314eee5c192d0fe296a6c5faadd22ee7e1d4429b7c0a698264736f6c634300081a0033\n}\n",
				"bytecode": {
					"linkReferences": {},
					"object": "608060405260036001553480156013575f80fd5b5060c380601f5f395ff3fe6080604052348015600e575f80fd5b50600436106026575f3560e01c806353ed514314602a575b5f80fd5b60306045565b604051603c929190606a565b60405180910390f35b5f805f54600154915091509091565b5f819050919050565b6064816054565b82525050565b5f604082019050607b5f830185605d565b60866020830184605d565b939250505056fea26469706673582212203c06291248ca2f20314eee5c192d0fe296a6c5faadd22ee7e1d4429b7c0a698264736f6c634300081a0033",
					"opcodes": "PUSH1 0x80 PUSH1 0x40 MSTORE PUSH1 0x3 PUSH1 0x1 SSTORE CALLVALUE DUP1 ISZERO PUSH1 0x13 JUMPI PUSH0 DUP1 REVERT JUMPDEST POP PUSH1 0xC3 DUP1 PUSH1 0x1F PUSH0 CODECOPY PUSH0 RETURN INVALID PUSH1 0x80 PUSH1 0x40 MSTORE CALLVALUE DUP1 ISZERO PUSH1 0xE JUMPI PUSH0 DUP1 REVERT JUMPDEST POP PUSH1 0x4 CALLDATASIZE LT PUSH1 0x26 JUMPI PUSH0 CALLDATALOAD PUSH1 0xE0 SHR DUP1 PUSH4 0x53ED5143 EQ PUSH1 0x2A JUMPI JUMPDEST PUSH0 DUP1 REVERT JUMPDEST PUSH1 0x30 PUSH1 0x45 JUMP JUMPDEST PUSH1 0x40 MLOAD PUSH1 0x3C SWAP3 SWAP2 SWAP1 PUSH1 0x6A JUMP JUMPDEST PUSH1 0x40 MLOAD DUP1 SWAP2 SUB SWAP1 RETURN JUMPDEST PUSH0 DUP1 PUSH0 SLOAD PUSH1 0x1 SLOAD SWAP2 POP SWAP2 POP SWAP1 SWAP2 JUMP JUMPDEST PUSH0 DUP2 SWAP1 POP SWAP2 SWAP1 POP JUMP JUMPDEST PUSH1 0x64 DUP2 PUSH1 0x54 JUMP JUMPDEST DUP3 MSTORE POP POP JUMP JUMPDEST PUSH0 PUSH1 0x40 DUP3 ADD SWAP1 POP PUSH1 0x7B PUSH0 DUP4 ADD DUP6 PUSH1 0x5D JUMP JUMPDEST PUSH1 0x86 PUSH1 0x20 DUP4 ADD DUP5 PUSH1 0x5D JUMP JUMPDEST SWAP4 SWAP3 POP POP POP JUMP INVALID LOG2 PUSH5 0x6970667358 0x22 SLT KECCAK256 EXTCODECOPY MOD 0x29 SLT BASEFEE 0xCA 0x2F KECCAK256 BALANCE 0x4E 0xEE TLOAD NOT 0x2D 0xF 0xE2 SWAP7 0xA6 0xC5 STATICCALL 0xAD 0xD2 0x2E 0xE7 0xE1 0xD4 TIMESTAMP SWAP12 PUSH29 0xA698264736F6C634300081A0033000000000000000000000000000000 "
				},
				"gasEstimates": {
					"creation": {
						"codeDepositCost": "39000",
						"executionCost": "22197",
						"totalCost": "61197"
					},
					"external": {
						"getAll()": "infinite"
					}
				},
				"methodIdentifiers": {
					"getAll()": "53ed5143"
				}
			},
			"storageLayout": {
				"storage": [
					{
						"astId": 16,
						"contract": "contracts/Solidity101.sol:BasicVarAndInt",
						"label": "basic_price",
						"offset": 0,
						"slot": "0",
						"type": "t_int256"
					},
					{
						"astId": 19,
						"contract": "contracts/Solidity101.sol:BasicVarAndInt",
						"label": "levels",
						"offset": 0,
						"slot": "1",
						"type": "t_int256"
					}
				],
				"types": {
					"t_int256": {
						"encoding": "inplace",
						"label": "int256",
						"numberOfBytes": "32"
					}
				}
			},
			"userdoc": {
				"kind": "user",
				"methods": {},
				"version": 1
			}
		}
	}
}