{
	"contracts/Solidity101.sol": {
		"FunctionAlternativeOutput": {
			"abi": [
				{
					"inputs": [],
					"name": "sum",
					"outputs": [
						{
							"internalType": "int256",
							"name": "k",
							"type": "int256"
						},
						{
							"internalType": "int256",
							"name": "j",
							"type": "int256"
						}
					],
					"stateMutability": "pure",
					"type": "function"
				}
			],
			"devdoc": {
				"kind": "dev",
				"methods": {},
				"version": 1
			},
			"evm": {
				"assembly": "    /* \"contracts/Solidity101.sol\":3902:4040  contract FunctionAlternativeOutput {... */\n  mstore(0x40, 0x80)\n  callvalue\n  dup1\n  iszero\n  tag_1\n  jumpi\n  0x00\n  dup1\n  revert\ntag_1:\n  pop\n  dataSize(sub_0)\n  dup1\n  dataOffset(sub_0)\n  0x00\n  codecopy\n  0x00\n  return\nstop\n\nsub_0: assembly {\n        /* \"contracts/Solidity101.sol\":3902:4040  contract FunctionAlternativeOutput {... */\n      mstore(0x40, 0x80)\n      callvalue\n      dup1\n      iszero\n      tag_1\n      jumpi\n      0x00\n      dup1\n      revert\n    tag_1:\n      pop\n      jumpi(tag_2, lt(calldatasize, 0x04))\n      shr(0xe0, calldataload(0x00))\n      dup1\n      0x853255cc\n      eq\n      tag_3\n      jumpi\n    tag_2:\n      0x00\n      dup1\n      revert\n        /* \"contracts/Solidity101.sol\":3943:4038  function sum() public pure returns (int256 k, int256 j) {... */\n    tag_3:\n      tag_4\n      tag_5\n      jump\t// in\n    tag_4:\n      mload(0x40)\n      tag_6\n      swap3\n      swap2\n      swap1\n      tag_7\n      jump\t// in\n    tag_6:\n      mload(0x40)\n      dup1\n      swap2\n      sub\n      swap1\n      return\n    tag_5:\n        /* \"contracts/Solidity101.sol\":3979:3987  int256 k */\n      0x00\n        /* \"contracts/Solidity101.sol\":3989:3997  int256 j */\n      dup1\n        /* \"contracts/Solidity101.sol\":4013:4015  10 */\n      0x0a\n        /* \"contracts/Solidity101.sol\":4009:4015  k = 10 */\n      swap2\n      pop\n        /* \"contracts/Solidity101.sol\":4029:4031  15 */\n      0x0f\n        /* \"contracts/Solidity101.sol\":4025:4031  j = 15 */\n      swap1\n      pop\n        /* \"contracts/Solidity101.sol\":3943:4038  function sum() public pure returns (int256 k, int256 j) {... */\n      swap1\n      swap2\n      jump\t// out\n        /* \"#utility.yul\":7:83   */\n    tag_9:\n        /* \"#utility.yul\":43:50   */\n      0x00\n        /* \"#utility.yul\":72:77   */\n      dup2\n        /* \"#utility.yul\":61:77   */\n      swap1\n      pop\n        /* \"#utility.yul\":7:83   */\n      swap2\n      swap1\n      pop\n      jump\t// out\n        /* \"#utility.yul\":89:204   */\n    tag_10:\n        /* \"#utility.yul\":174:197   */\n      tag_14\n        /* \"#utility.yul\":191:196   */\n      dup2\n        /* \"#utility.yul\":174:197   */\n      tag_9\n      jump\t// in\n    tag_14:\n        /* \"#utility.yul\":169:172   */\n      dup3\n        /* \"#utility.yul\":162:198   */\n      mstore\n        /* \"#utility.yul\":89:204   */\n      pop\n      pop\n      jump\t// out\n        /* \"#utility.yul\":210:534   */\n    tag_7:\n        /* \"#utility.yul\":327:331   */\n      0x00\n        /* \"#utility.yul\":365:367   */\n      0x40\n        /* \"#utility.yul\":354:363   */\n      dup3\n        /* \"#utility.yul\":350:368   */\n      add\n        /* \"#utility.yul\":342:368   */\n      swap1\n      pop\n        /* \"#utility.yul\":378:447   */\n      tag_16\n        /* \"#utility.yul\":444:445   */\n      0x00\n        /* \"#utility.yul\":433:442   */\n      dup4\n        /* \"#utility.yul\":429:446   */\n      add\n        /* \"#utility.yul\":420:426   */\n      dup6\n        /* \"#utility.yul\":378:447   */\n      tag_10\n      jump\t// in\n    tag_16:\n        /* \"#utility.yul\":457:527   */\n      tag_17\n        /* \"#utility.yul\":523:525   */\n      0x20\n        /* \"#utility.yul\":512:521   */\n      dup4\n        /* \"#utility.yul\":508:526   */\n      add\n        /* \"#utility.yul\":499:505   */\n      dup5\n        /* \"#utility.yul\":457:527   */\n      tag_10\n      jump\t// in\n    tag_17:\n        /* \"#utility.yul\":210:534   */\n      swap4\n      swap3\n      pop\n      pop\n      pop\n      jump\t// out\n\n    auxdata: 0xa264697066735822122040b5832b5050eff423b6f7e34318f2d927790054dcf005a7923c94b368d55bb864736f6c634300081a0033\n}\n",
				"bytecode": {
					"linkReferences": {},
					"object": "6080604052348015600e575f80fd5b5060c280601a5f395ff3fe6080604052348015600e575f80fd5b50600436106026575f3560e01c8063853255cc14602a575b5f80fd5b60306045565b604051603c9291906069565b60405180910390f35b5f80600a9150600f90509091565b5f819050919050565b6063816053565b82525050565b5f604082019050607a5f830185605c565b60856020830184605c565b939250505056fea264697066735822122040b5832b5050eff423b6f7e34318f2d927790054dcf005a7923c94b368d55bb864736f6c634300081a0033",
					"opcodes": "PUSH1 0x80 PUSH1 0x40 MSTORE CALLVALUE DUP1 ISZERO PUSH1 0xE JUMPI PUSH0 DUP1 REVERT JUMPDEST POP PUSH1 0xC2 DUP1 PUSH1 0x1A PUSH0 CODECOPY PUSH0 RETURN INVALID PUSH1 0x80 PUSH1 0x40 MSTORE CALLVALUE DUP1 ISZERO PUSH1 0xE JUMPI PUSH0 DUP1 REVERT JUMPDEST POP PUSH1 0x4 CALLDATASIZE LT PUSH1 0x26 JUMPI PUSH0 CALLDATALOAD PUSH1 0xE0 SHR DUP1 PUSH4 0x853255CC EQ PUSH1 0x2A JUMPI JUMPDEST PUSH0 DUP1 REVERT JUMPDEST PUSH1 0x30 PUSH1 0x45 JUMP JUMPDEST PUSH1 0x40 MLOAD PUSH1 0x3C SWAP3 SWAP2 SWAP1 PUSH1 0x69 JUMP JUMPDEST PUSH1 0x40 MLOAD DUP1 SWAP2 SUB SWAP1 RETURN JUMPDEST PUSH0 DUP1 PUSH1 0xA SWAP2 POP PUSH1 0xF SWAP1 POP SWAP1 SWAP2 JUMP JUMPDEST PUSH0 DUP2 SWAP1 POP SWAP2 SWAP1 POP JUMP JUMPDEST PUSH1 0x63 DUP2 PUSH1 0x53 JUMP JUMPDEST DUP3 MSTORE POP POP JUMP JUMPDEST PUSH0 PUSH1 0x40 DUP3 ADD SWAP1 POP PUSH1 0x7A PUSH0 DUP4 ADD DUP6 PUSH1 0x5C JUMP JUMPDEST PUSH1 0x85 PUSH1 0x20 DUP4 ADD DUP5 PUSH1 0x5C JUMP JUMPDEST SWAP4 SWAP3 POP POP POP JUMP INVALID LOG2 PUSH5 0x6970667358 0x22 SLT KECCAK256 BLOCKHASH 0xB5 DUP4 0x2B POP POP 0xEF DELEGATECALL 0x23 0xB6 0xF7 0xE3 NUMBER XOR CALLCODE 0xD9 0x27 PUSH26 0x54DCF005A7923C94B368D55BB864736F6C634300081A003300 "
				},
				"gasEstimates": {
					"creation": {
						"codeDepositCost": "38800",
						"executionCost": "91",
						"totalCost": "38891"
					},
					"external": {
						"sum()": "infinite"
					}
				},
				"methodIdentifiers": {
					"sum()": "853255cc"
				}
			},
			"storageLayout": {
				"storage": [],
				"types": null
			},
			"userdoc": {
				"kind": "user",
				"methods": {},
				"version": 1
			}
		}
	}
}