{
	"data": {
		"bytecode": {
			"linkReferences": {},
			"object": "6080604052348015600e575f80fd5b506102b08061001c5f395ff3fe608060405234801561000f575f80fd5b5060043610610029575f3560e01c80635476b57f1461002d575b5f80fd5b61004760048036038101906100429190610146565b61005f565b604051610056939291906101d7565b60405180910390f35b5f805f858761006e9190610239565b85859250925092509450945094915050565b5f80fd5b5f819050919050565b61009681610084565b81146100a0575f80fd5b50565b5f813590506100b18161008d565b92915050565b5f8115159050919050565b6100cb816100b7565b81146100d5575f80fd5b50565b5f813590506100e6816100c2565b92915050565b5f73ffffffffffffffffffffffffffffffffffffffff82169050919050565b5f610115826100ec565b9050919050565b6101258161010b565b811461012f575f80fd5b50565b5f813590506101408161011c565b92915050565b5f805f806080858703121561015e5761015d610080565b5b5f61016b878288016100a3565b945050602061017c878288016100a3565b935050604061018d878288016100d8565b925050606061019e87828801610132565b91505092959194509250565b6101b381610084565b82525050565b6101c2816100b7565b82525050565b6101d18161010b565b82525050565b5f6060820190506101ea5f8301866101aa565b6101f760208301856101b9565b61020460408301846101c8565b949350505050565b7f4e487b71000000000000000000000000000000000000000000000000000000005f52601160045260245ffd5b5f61024382610084565b915061024e83610084565b92508282019050828112155f8312168382125f8412151617156102745761027361020c565b5b9291505056fea26469706673582212208d0e9366ae625dd92911958e803701ed2270aceca158242734cf5d96ba85247f64736f6c634300081a0033",
			"opcodes": "PUSH1 0x80 PUSH1 0x40 MSTORE CALLVALUE DUP1 ISZERO PUSH1 0xE JUMPI PUSH0 DUP1 REVERT JUMPDEST POP PUSH2 0x2B0 DUP1 PUSH2 0x1C PUSH0 CODECOPY PUSH0 RETURN INVALID PUSH1 0x80 PUSH1 0x40 MSTORE CALLVALUE DUP1 ISZERO PUSH2 0xF JUMPI PUSH0 DUP1 REVERT JUMPDEST POP PUSH1 0x4 CALLDATASIZE LT PUSH2 0x29 JUMPI PUSH0 CALLDATALOAD PUSH1 0xE0 SHR DUP1 PUSH4 0x5476B57F EQ PUSH2 0x2D JUMPI JUMPDEST PUSH0 DUP1 REVERT JUMPDEST PUSH2 0x47 PUSH1 0x4 DUP1 CALLDATASIZE SUB DUP2 ADD SWAP1 PUSH2 0x42 SWAP2 SWAP1 PUSH2 0x146 JUMP JUMPDEST PUSH2 0x5F JUMP JUMPDEST PUSH1 0x40 MLOAD PUSH2 0x56 SWAP4 SWAP3 SWAP2 SWAP1 PUSH2 0x1D7 JUMP JUMPDEST PUSH1 0x40 MLOAD DUP1 SWAP2 SUB SWAP1 RETURN JUMPDEST PUSH0 DUP1 PUSH0 DUP6 DUP8 PUSH2 0x6E SWAP2 SWAP1 PUSH2 0x239 JUMP JUMPDEST DUP6 DUP6 SWAP3 POP SWAP3 POP SWAP3 POP SWAP5 POP SWAP5 POP SWAP5 SWAP2 POP POP JUMP JUMPDEST PUSH0 DUP1 REVERT JUMPDEST PUSH0 DUP2 SWAP1 POP SWAP2 SWAP1 POP JUMP JUMPDEST PUSH2 0x96 DUP2 PUSH2 0x84 JUMP JUMPDEST DUP2 EQ PUSH2 0xA0 JUMPI PUSH0 DUP1 REVERT JUMPDEST POP JUMP JUMPDEST PUSH0 DUP2 CALLDATALOAD SWAP1 POP PUSH2 0xB1 DUP2 PUSH2 0x8D JUMP JUMPDEST SWAP3 SWAP2 POP POP JUMP JUMPDEST PUSH0 DUP2 ISZERO ISZERO SWAP1 POP SWAP2 SWAP1 POP JUMP JUMPDEST PUSH2 0xCB DUP2 PUSH2 0xB7 JUMP JUMPDEST DUP2 EQ PUSH2 0xD5 JUMPI PUSH0 DUP1 REVERT JUMPDEST POP JUMP JUMPDEST PUSH0 DUP2 CALLDATALOAD SWAP1 POP PUSH2 0xE6 DUP2 PUSH2 0xC2 JUMP JUMPDEST SWAP3 SWAP2 POP POP JUMP JUMPDEST PUSH0 PUSH20 0xFFFFFFFFFFFFFFFFFFFFFFFFFFFFFFFFFFFFFFFF DUP3 AND SWAP1 POP SWAP2 SWAP1 POP JUMP JUMPDEST PUSH0 PUSH2 0x115 DUP3 PUSH2 0xEC JUMP JUMPDEST SWAP1 POP SWAP2 SWAP1 POP JUMP JUMPDEST PUSH2 0x125 DUP2 PUSH2 0x10B JUMP JUMPDEST DUP2 EQ PUSH2 0x12F JUMPI PUSH0 DUP1 REVERT JUMPDEST POP JUMP JUMPDEST PUSH0 DUP2 CALLDATALOAD SWAP1 POP PUSH2 0x140 DUP2 PUSH2 0x11C JUMP JUMPDEST SWAP3 SWAP2 POP POP JUMP JUMPDEST PUSH0 DUP1 PUSH0 DUP1 PUSH1 0x80 DUP6 DUP8 SUB SLT ISZERO PUSH2 0x15E JUMPI PUSH2 0x15D PUSH2 0x80 JUMP JUMPDEST JUMPDEST PUSH0 PUSH2 0x16B DUP8 DUP3 DUP9 ADD PUSH2 0xA3 JUMP JUMPDEST SWAP5 POP POP PUSH1 0x20 PUSH2 0x17C DUP8 DUP3 DUP9 ADD PUSH2 0xA3 JUMP JUMPDEST SWAP4 POP POP PUSH1 0x40 PUSH2 0x18D DUP8 DUP3 DUP9 ADD PUSH2 0xD8 JUMP JUMPDEST SWAP3 POP POP PUSH1 0x60 PUSH2 0x19E DUP8 DUP3 DUP9 ADD PUSH2 0x132 JUMP JUMPDEST SWAP2 POP POP SWAP3 SWAP6 SWAP2 SWAP5 POP SWAP3 POP JUMP JUMPDEST PUSH2 0x1B3 DUP2 PUSH2 0x84 JUMP JUMPDEST DUP3 MSTORE POP POP JUMP JUMPDEST PUSH2 0x1C2 DUP2 PUSH2 0xB7 JUMP JUMPDEST DUP3 MSTORE POP POP JUMP JUMPDEST PUSH2 0x1D1 DUP2 PUSH2 0x10B JUMP JUMPDEST DUP3 MSTORE POP POP JUMP JUMPDEST PUSH0 PUSH1 0x60 DUP3 ADD SWAP1 POP PUSH2 0x1EA PUSH0 DUP4 ADD DUP7 PUSH2 0x1AA JUMP JUMPDEST PUSH2 0x1F7 PUSH1 0x20 DUP4 ADD DUP6 PUSH2 0x1B9 JUMP JUMPDEST PUSH2 0x204 PUSH1 0x40 DUP4 ADD DUP5 PUSH2 0x1C8 JUMP JUMPDEST SWAP5 SWAP4 POP POP POP POP JUMP JUMPDEST PUSH32 0x4E487B7100000000000000000000000000000000000000000000000000000000 PUSH0 MSTORE PUSH1 0x11 PUSH1 0x4 MSTORE PUSH1 0x24 PUSH0 REVERT JUMPDEST PUSH0 PUSH2 0x243 DUP3 PUSH2 0x84 JUMP JUMPDEST SWAP2 POP PUSH2 0x24E DUP4 PUSH2 0x84 JUMP JUMPDEST SWAP3 POP DUP3 DUP3 ADD SWAP1 POP DUP3 DUP2 SLT ISZERO PUSH0 DUP4 SLT AND DUP4 DUP3 SLT PUSH0 DUP5 SLT ISZERO AND OR ISZERO PUSH2 0x274 JUMPI PUSH2 0x273 PUSH2 0x20C JUMP JUMPDEST JUMPDEST SWAP3 SWAP2 POP POP JUMP INVALID LOG2 PUSH5 0x6970667358 0x22 SLT KECCAK256 DUP14 0xE SWAP4 PUSH7 0xAE625DD9291195 DUP15 DUP1 CALLDATACOPY ADD 0xED 0x22 PUSH17 0xACECA158242734CF5D96BA85247F64736F PUSH13 0x634300081A0033000000000000 "
		},
		"gasEstimates": {
			"creation": {
				"codeDepositCost": "137600",
				"executionCost": "181",
				"totalCost": "137781"
			},
			"external": {
				"add(int256,int256,bool,address)": "infinite"
			}
		},
		"methodIdentifiers": {
			"add(int256,int256,bool,address)": "5476b57f"
		}
	},
	"abi": [
		{
			"inputs": [
				{
					"internalType": "int256",
					"name": "a",
					"type": "int256"
				},
				{
					"internalType": "int256",
					"name": "b",
					"type": "int256"
				},
				{
					"internalType": "bool",
					"name": "c",
					"type": "bool"
				},
				{
					"internalType": "address",
					"name": "d",
					"type": "address"
				}
			],
			"name": "add",
			"outputs": [
				{
					"internalType": "int256",
					"name": "",
					"type": "int256"
				},
				{
					"internalType": "bool",
					"name": "",
					"type": "bool"
				},
				{
					"internalType": "address",
					"name": "",
					"type": "address"
				}
			],
			"stateMutability": "pure",
			"type": "function"
		}
	]
}