{
	"data": {
		"bytecode": {
			"linkReferences": {},
			"object": "6080604052348015600e575f80fd5b506104ad8061001c5f395ff3fe608060405234801561000f575f80fd5b5060043610610060575f3560e01c806308c7add314610064578063627445c014610095578063a5f3c23b146100c6578063b93ea812146100f6578063d273617114610126578063d805e4e714610156575b5f80fd5b61007e60048036038101906100799190610276565b610186565b60405161008c9291906102c3565b60405180910390f35b6100af60048036038101906100aa91906102ea565b6101ab565b6040516100bd9291906102c3565b60405180910390f35b6100e060048036038101906100db9190610276565b6101e0565b6040516100ed919061033a565b60405180910390f35b610110600480360381019061010b9190610276565b6101f5565b60405161011d919061033a565b60405180910390f35b610140600480360381019061013b91906102ea565b61020a565b60405161014d919061033a565b60405180910390f35b610170600480360381019061016b9190610276565b61022c565b60405161017d919061033a565b60405180910390f35b5f8082846101949190610380565b83856101a091906103c1565b915091509250929050565b5f805f806101b98787610186565b915091506101d28282876101cd9190610380565b610186565b935093505050935093915050565b5f81836101ed9190610380565b905092915050565b5f81836102029190610437565b905092915050565b5f8061021685856101e0565b905061022281846101e0565b9150509392505050565b5f61023783836101f5565b905092915050565b5f80fd5b5f819050919050565b61025581610243565b811461025f575f80fd5b50565b5f813590506102708161024c565b92915050565b5f806040838503121561028c5761028b61023f565b5b5f61029985828601610262565b92505060206102aa85828601610262565b9150509250929050565b6102bd81610243565b82525050565b5f6040820190506102d65f8301856102b4565b6102e360208301846102b4565b9392505050565b5f805f606084860312156103015761030061023f565b5b5f61030e86828701610262565b935050602061031f86828701610262565b925050604061033086828701610262565b9150509250925092565b5f60208201905061034d5f8301846102b4565b92915050565b7f4e487b71000000000000000000000000000000000000000000000000000000005f52601160045260245ffd5b5f61038a82610243565b915061039583610243565b92508282019050828112155f8312168382125f8412151617156103bb576103ba610353565b5b92915050565b5f6103cb82610243565b91506103d683610243565b92508282026103e481610243565b91507f800000000000000000000000000000000000000000000000000000000000000084145f8412161561041b5761041a610353565b5b82820584148315176104305761042f610353565b5b5092915050565b5f61044182610243565b915061044c83610243565b925082820390508181125f8412168282135f85121516171561047157610470610353565b5b9291505056fea26469706673582212202b59aa074c25c52afe12ee157543b6dbf0dda880fc723c7ae0e3b1313eff958a64736f6c634300081a0033",
			"opcodes": "PUSH1 0x80 PUSH1 0x40 MSTORE CALLVALUE DUP1 ISZERO PUSH1 0xE JUMPI PUSH0 DUP1 REVERT JUMPDEST POP PUSH2 0x4AD DUP1 PUSH2 0x1C PUSH0 CODECOPY PUSH0 RETURN INVALID PUSH1 0x80 PUSH1 0x40 MSTORE CALLVALUE DUP1 ISZERO PUSH2 0xF JUMPI PUSH0 DUP1 REVERT JUMPDEST POP PUSH1 0x4 CALLDATASIZE LT PUSH2 0x60 JUMPI PUSH0 CALLDATALOAD PUSH1 0xE0 SHR DUP1 PUSH4 0x8C7ADD3 EQ PUSH2 0x64 JUMPI DUP1 PUSH4 0x627445C0 EQ PUSH2 0x95 JUMPI DUP1 PUSH4 0xA5F3C23B EQ PUSH2 0xC6 JUMPI DUP1 PUSH4 0xB93EA812 EQ PUSH2 0xF6 JUMPI DUP1 PUSH4 0xD2736171 EQ PUSH2 0x126 JUMPI DUP1 PUSH4 0xD805E4E7 EQ PUSH2 0x156 JUMPI JUMPDEST PUSH0 DUP1 REVERT JUMPDEST PUSH2 0x7E PUSH1 0x4 DUP1 CALLDATASIZE SUB DUP2 ADD SWAP1 PUSH2 0x79 SWAP2 SWAP1 PUSH2 0x276 JUMP JUMPDEST PUSH2 0x186 JUMP JUMPDEST PUSH1 0x40 MLOAD PUSH2 0x8C SWAP3 SWAP2 SWAP1 PUSH2 0x2C3 JUMP JUMPDEST PUSH1 0x40 MLOAD DUP1 SWAP2 SUB SWAP1 RETURN JUMPDEST PUSH2 0xAF PUSH1 0x4 DUP1 CALLDATASIZE SUB DUP2 ADD SWAP1 PUSH2 0xAA SWAP2 SWAP1 PUSH2 0x2EA JUMP JUMPDEST PUSH2 0x1AB JUMP JUMPDEST PUSH1 0x40 MLOAD PUSH2 0xBD SWAP3 SWAP2 SWAP1 PUSH2 0x2C3 JUMP JUMPDEST PUSH1 0x40 MLOAD DUP1 SWAP2 SUB SWAP1 RETURN JUMPDEST PUSH2 0xE0 PUSH1 0x4 DUP1 CALLDATASIZE SUB DUP2 ADD SWAP1 PUSH2 0xDB SWAP2 SWAP1 PUSH2 0x276 JUMP JUMPDEST PUSH2 0x1E0 JUMP JUMPDEST PUSH1 0x40 MLOAD PUSH2 0xED SWAP2 SWAP1 PUSH2 0x33A JUMP JUMPDEST PUSH1 0x40 MLOAD DUP1 SWAP2 SUB SWAP1 RETURN JUMPDEST PUSH2 0x110 PUSH1 0x4 DUP1 CALLDATASIZE SUB DUP2 ADD SWAP1 PUSH2 0x10B SWAP2 SWAP1 PUSH2 0x276 JUMP JUMPDEST PUSH2 0x1F5 JUMP JUMPDEST PUSH1 0x40 MLOAD PUSH2 0x11D SWAP2 SWAP1 PUSH2 0x33A JUMP JUMPDEST PUSH1 0x40 MLOAD DUP1 SWAP2 SUB SWAP1 RETURN JUMPDEST PUSH2 0x140 PUSH1 0x4 DUP1 CALLDATASIZE SUB DUP2 ADD SWAP1 PUSH2 0x13B SWAP2 SWAP1 PUSH2 0x2EA JUMP JUMPDEST PUSH2 0x20A JUMP JUMPDEST PUSH1 0x40 MLOAD PUSH2 0x14D SWAP2 SWAP1 PUSH2 0x33A JUMP JUMPDEST PUSH1 0x40 MLOAD DUP1 SWAP2 SUB SWAP1 RETURN JUMPDEST PUSH2 0x170 PUSH1 0x4 DUP1 CALLDATASIZE SUB DUP2 ADD SWAP1 PUSH2 0x16B SWAP2 SWAP1 PUSH2 0x276 JUMP JUMPDEST PUSH2 0x22C JUMP JUMPDEST PUSH1 0x40 MLOAD PUSH2 0x17D SWAP2 SWAP1 PUSH2 0x33A JUMP JUMPDEST PUSH1 0x40 MLOAD DUP1 SWAP2 SUB SWAP1 RETURN JUMPDEST PUSH0 DUP1 DUP3 DUP5 PUSH2 0x194 SWAP2 SWAP1 PUSH2 0x380 JUMP JUMPDEST DUP4 DUP6 PUSH2 0x1A0 SWAP2 SWAP1 PUSH2 0x3C1 JUMP JUMPDEST SWAP2 POP SWAP2 POP SWAP3 POP SWAP3 SWAP1 POP JUMP JUMPDEST PUSH0 DUP1 PUSH0 DUP1 PUSH2 0x1B9 DUP8 DUP8 PUSH2 0x186 JUMP JUMPDEST SWAP2 POP SWAP2 POP PUSH2 0x1D2 DUP3 DUP3 DUP8 PUSH2 0x1CD SWAP2 SWAP1 PUSH2 0x380 JUMP JUMPDEST PUSH2 0x186 JUMP JUMPDEST SWAP4 POP SWAP4 POP POP POP SWAP4 POP SWAP4 SWAP2 POP POP JUMP JUMPDEST PUSH0 DUP2 DUP4 PUSH2 0x1ED SWAP2 SWAP1 PUSH2 0x380 JUMP JUMPDEST SWAP1 POP SWAP3 SWAP2 POP POP JUMP JUMPDEST PUSH0 DUP2 DUP4 PUSH2 0x202 SWAP2 SWAP1 PUSH2 0x437 JUMP JUMPDEST SWAP1 POP SWAP3 SWAP2 POP POP JUMP JUMPDEST PUSH0 DUP1 PUSH2 0x216 DUP6 DUP6 PUSH2 0x1E0 JUMP JUMPDEST SWAP1 POP PUSH2 0x222 DUP2 DUP5 PUSH2 0x1E0 JUMP JUMPDEST SWAP2 POP POP SWAP4 SWAP3 POP POP POP JUMP JUMPDEST PUSH0 PUSH2 0x237 DUP4 DUP4 PUSH2 0x1F5 JUMP JUMPDEST SWAP1 POP SWAP3 SWAP2 POP POP JUMP JUMPDEST PUSH0 DUP1 REVERT JUMPDEST PUSH0 DUP2 SWAP1 POP SWAP2 SWAP1 POP JUMP JUMPDEST PUSH2 0x255 DUP2 PUSH2 0x243 JUMP JUMPDEST DUP2 EQ PUSH2 0x25F JUMPI PUSH0 DUP1 REVERT JUMPDEST POP JUMP JUMPDEST PUSH0 DUP2 CALLDATALOAD SWAP1 POP PUSH2 0x270 DUP2 PUSH2 0x24C JUMP JUMPDEST SWAP3 SWAP2 POP POP JUMP JUMPDEST PUSH0 DUP1 PUSH1 0x40 DUP4 DUP6 SUB SLT ISZERO PUSH2 0x28C JUMPI PUSH2 0x28B PUSH2 0x23F JUMP JUMPDEST JUMPDEST PUSH0 PUSH2 0x299 DUP6 DUP3 DUP7 ADD PUSH2 0x262 JUMP JUMPDEST SWAP3 POP POP PUSH1 0x20 PUSH2 0x2AA DUP6 DUP3 DUP7 ADD PUSH2 0x262 JUMP JUMPDEST SWAP2 POP POP SWAP3 POP SWAP3 SWAP1 POP JUMP JUMPDEST PUSH2 0x2BD DUP2 PUSH2 0x243 JUMP JUMPDEST DUP3 MSTORE POP POP JUMP JUMPDEST PUSH0 PUSH1 0x40 DUP3 ADD SWAP1 POP PUSH2 0x2D6 PUSH0 DUP4 ADD DUP6 PUSH2 0x2B4 JUMP JUMPDEST PUSH2 0x2E3 PUSH1 0x20 DUP4 ADD DUP5 PUSH2 0x2B4 JUMP JUMPDEST SWAP4 SWAP3 POP POP POP JUMP JUMPDEST PUSH0 DUP1 PUSH0 PUSH1 0x60 DUP5 DUP7 SUB SLT ISZERO PUSH2 0x301 JUMPI PUSH2 0x300 PUSH2 0x23F JUMP JUMPDEST JUMPDEST PUSH0 PUSH2 0x30E DUP7 DUP3 DUP8 ADD PUSH2 0x262 JUMP JUMPDEST SWAP4 POP POP PUSH1 0x20 PUSH2 0x31F DUP7 DUP3 DUP8 ADD PUSH2 0x262 JUMP JUMPDEST SWAP3 POP POP PUSH1 0x40 PUSH2 0x330 DUP7 DUP3 DUP8 ADD PUSH2 0x262 JUMP JUMPDEST SWAP2 POP POP SWAP3 POP SWAP3 POP SWAP3 JUMP JUMPDEST PUSH0 PUSH1 0x20 DUP3 ADD SWAP1 POP PUSH2 0x34D PUSH0 DUP4 ADD DUP5 PUSH2 0x2B4 JUMP JUMPDEST SWAP3 SWAP2 POP POP JUMP JUMPDEST PUSH32 0x4E487B7100000000000000000000000000000000000000000000000000000000 PUSH0 MSTORE PUSH1 0x11 PUSH1 0x4 MSTORE PUSH1 0x24 PUSH0 REVERT JUMPDEST PUSH0 PUSH2 0x38A DUP3 PUSH2 0x243 JUMP JUMPDEST SWAP2 POP PUSH2 0x395 DUP4 PUSH2 0x243 JUMP JUMPDEST SWAP3 POP DUP3 DUP3 ADD SWAP1 POP DUP3 DUP2 SLT ISZERO PUSH0 DUP4 SLT AND DUP4 DUP3 SLT PUSH0 DUP5 SLT ISZERO AND OR ISZERO PUSH2 0x3BB JUMPI PUSH2 0x3BA PUSH2 0x353 JUMP JUMPDEST JUMPDEST SWAP3 SWAP2 POP POP JUMP JUMPDEST PUSH0 PUSH2 0x3CB DUP3 PUSH2 0x243 JUMP JUMPDEST SWAP2 POP PUSH2 0x3D6 DUP4 PUSH2 0x243 JUMP JUMPDEST SWAP3 POP DUP3 DUP3 MUL PUSH2 0x3E4 DUP2 PUSH2 0x243 JUMP JUMPDEST SWAP2 POP PUSH32 0x8000000000000000000000000000000000000000000000000000000000000000 DUP5 EQ PUSH0 DUP5 SLT AND ISZERO PUSH2 0x41B JUMPI PUSH2 0x41A PUSH2 0x353 JUMP JUMPDEST JUMPDEST DUP3 DUP3 SDIV DUP5 EQ DUP4 ISZERO OR PUSH2 0x430 JUMPI PUSH2 0x42F PUSH2 0x353 JUMP JUMPDEST JUMPDEST POP SWAP3 SWAP2 POP POP JUMP JUMPDEST PUSH0 PUSH2 0x441 DUP3 PUSH2 0x243 JUMP JUMPDEST SWAP2 POP PUSH2 0x44C DUP4 PUSH2 0x243 JUMP JUMPDEST SWAP3 POP DUP3 DUP3 SUB SWAP1 POP DUP2 DUP2 SLT PUSH0 DUP5 SLT AND DUP3 DUP3 SGT PUSH0 DUP6 SLT ISZERO AND OR ISZERO PUSH2 0x471 JUMPI PUSH2 0x470 PUSH2 0x353 JUMP JUMPDEST JUMPDEST SWAP3 SWAP2 POP POP JUMP INVALID LOG2 PUSH5 0x6970667358 0x22 SLT KECCAK256 0x2B MSIZE 0xAA SMOD 0x4C 0x25 0xC5 0x2A INVALID SLT 0xEE ISZERO PUSH22 0x43B6DBF0DDA880FC723C7AE0E3B1313EFF958A64736F PUSH13 0x634300081A0033000000000000 "
		},
		"gasEstimates": {
			"creation": {
				"codeDepositCost": "239400",
				"executionCost": "279",
				"totalCost": "239679"
			},
			"external": {
				"add(int256,int256)": "infinite",
				"addMul(int256,int256)": "infinite",
				"addMulUp(int256,int256,int256)": "infinite",
				"addUp(int256,int256,int256)": "infinite",
				"example(int256,int256)": "infinite",
				"subtract(int256,int256)": "infinite"
			}
		},
		"methodIdentifiers": {
			"add(int256,int256)": "a5f3c23b",
			"addMul(int256,int256)": "08c7add3",
			"addMulUp(int256,int256,int256)": "627445c0",
			"addUp(int256,int256,int256)": "d2736171",
			"example(int256,int256)": "d805e4e7",
			"subtract(int256,int256)": "b93ea812"
		}
	},
	"abi": [
		{
			"inputs": [
				{
					"internalType": "int256",
					"name": "a",
					"type": "int256"
				},
				{
					"internalType": "int256",
					"name": "b",
					"type": "int256"
				}
			],
			"name": "add",
			"outputs": [
				{
					"internalType": "int256",
					"name": "",
					"type": "int256"
				}
			],
			"stateMutability": "pure",
			"type": "function"
		},
		{
			"inputs": [
				{
					"internalType": "int256",
					"name": "a",
					"type": "int256"
				},
				{
					"internalType": "int256",
					"name": "b",
					"type": "int256"
				}
			],
			"name": "addMul",
			"outputs": [
				{
					"internalType": "int256",
					"name": "",
					"type": "int256"
				},
				{
					"internalType": "int256",
					"name": "",
					"type": "int256"
				}
			],
			"stateMutability": "pure",
			"type": "function"
		},
		{
			"inputs": [
				{
					"internalType": "int256",
					"name": "a",
					"type": "int256"
				},
				{
					"internalType": "int256",
					"name": "b",
					"type": "int256"
				},
				{
					"internalType": "int256",
					"name": "c",
					"type": "int256"
				}
			],
			"name": "addMulUp",
			"outputs": [
				{
					"internalType": "int256",
					"name": "",
					"type": "int256"
				},
				{
					"internalType": "int256",
					"name": "",
					"type": "int256"
				}
			],
			"stateMutability": "pure",
			"type": "function"
		},
		{
			"inputs": [
				{
					"internalType": "int256",
					"name": "a",
					"type": "int256"
				},
				{
					"internalType": "int256",
					"name": "b",
					"type": "int256"
				},
				{
					"internalType": "int256",
					"name": "c",
					"type": "int256"
				}
			],
			"name": "addUp",
			"outputs": [
				{
					"internalType": "int256",
					"name": "",
					"type": "int256"
				}
			],
			"stateMutability": "pure",
			"type": "function"
		},
		{
			"inputs": [
				{
					"internalType": "int256",
					"name": "j",
					"type": "int256"
				},
				{
					"internalType": "int256",
					"name": "i",
					"type": "int256"
				}
			],
			"name": "example",
			"outputs": [
				{
					"internalType": "int256",
					"name": "result",
					"type": "int256"
				}
			],
			"stateMutability": "pure",
			"type": "function"
		},
		{
			"inputs": [
				{
					"internalType": "int256",
					"name": "j",
					"type": "int256"
				},
				{
					"internalType": "int256",
					"name": "i",
					"type": "int256"
				}
			],
			"name": "subtract",
			"outputs": [
				{
					"internalType": "int256",
					"name": "",
					"type": "int256"
				}
			],
			"stateMutability": "pure",
			"type": "function"
		}
	]
}